{
    "contractName": "Auction",
    "abi": [
        {
            "inputs": [
                {
                    "internalType": "address payable",
                    "name": "_beneficiary",
                    "type": "address"
                },
                {
                    "internalType": "uint256",
                    "name": "_saleTokenNum",
                    "type": "uint256"
                },
                {
                    "internalType": "uint256",
                    "name": "_minValPerToken",
                    "type": "uint256"
                },
                {
                    "internalType": "uint256",
                    "name": "_biddingTime",
                    "type": "uint256"
                },
                {
                    "internalType": "uint256",
                    "name": "_delayedStartTime",
                    "type": "uint256"
                }
            ],
            "stateMutability": "nonpayable",
            "type": "constructor"
        },
        {
            "anonymous": false,
            "inputs": [
                {
                    "indexed": false,
                    "internalType": "address",
                    "name": "bidder",
                    "type": "address"
                },
                {
                    "indexed": false,
                    "internalType": "uint256",
                    "name": "amount",
                    "type": "uint256"
                },
                {
                    "indexed": false,
                    "internalType": "uint256",
                    "name": "payload",
                    "type": "uint256"
                }
            ],
            "name": "bidAdded",
            "type": "event"
        },
        {
            "anonymous": false,
            "inputs": [
                {
                    "indexed": false,
                    "internalType": "address",
                    "name": "bidder",
                    "type": "address"
                },
                {
                    "indexed": false,
                    "internalType": "uint256",
                    "name": "amount",
                    "type": "uint256"
                },
                {
                    "indexed": false,
                    "internalType": "uint256",
                    "name": "payload",
                    "type": "uint256"
                }
            ],
            "name": "bidUpdated",
            "type": "event"
        },
        {
            "inputs": [],
            "name": "beneficiary",
            "outputs": [
                {
                    "internalType": "address payable",
                    "name": "",
                    "type": "address"
                }
            ],
            "stateMutability": "view",
            "type": "function"
        },
        {
            "inputs": [
                {
                    "internalType": "uint256",
                    "name": "_payload",
                    "type": "uint256"
                }
            ],
            "name": "bid",
            "outputs": [],
            "stateMutability": "payable",
            "type": "function"
        },
        {
            "inputs": [],
            "name": "cancel",
            "outputs": [
                {
                    "internalType": "bool",
                    "name": "",
                    "type": "bool"
                }
            ],
            "stateMutability": "nonpayable",
            "type": "function"
        },
        {
            "inputs": [],
            "name": "endTime",
            "outputs": [
                {
                    "internalType": "uint256",
                    "name": "",
                    "type": "uint256"
                }
            ],
            "stateMutability": "view",
            "type": "function"
        },
        {
            "inputs": [],
            "name": "getBalance",
            "outputs": [
                {
                    "internalType": "uint256",
                    "name": "",
                    "type": "uint256"
                }
            ],
            "stateMutability": "view",
            "type": "function"
        },
        {
            "inputs": [],
            "name": "getTimestamp",
            "outputs": [
                {
                    "internalType": "uint256",
                    "name": "",
                    "type": "uint256"
                }
            ],
            "stateMutability": "view",
            "type": "function"
        },
        {
            "inputs": [],
            "name": "getWinners",
            "outputs": [
                {
                    "components": [
                        {
                            "internalType": "address",
                            "name": "bidder",
                            "type": "address"
                        },
                        {
                            "internalType": "uint256",
                            "name": "totalVal",
                            "type": "uint256"
                        },
                        {
                            "internalType": "uint256",
                            "name": "reqTokenNum",
                            "type": "uint256"
                        },
                        {
                            "internalType": "bool",
                            "name": "sellAllOrNothing",
                            "type": "bool"
                        }
                    ],
                    "internalType": "struct Bid[]",
                    "name": "",
                    "type": "tuple[]"
                }
            ],
            "stateMutability": "view",
            "type": "function"
        },
        {
            "inputs": [],
            "name": "minValPerToken",
            "outputs": [
                {
                    "internalType": "uint256",
                    "name": "",
                    "type": "uint256"
                }
            ],
            "stateMutability": "view",
            "type": "function"
        },
        {
            "inputs": [],
            "name": "returnFunds",
            "outputs": [],
            "stateMutability": "nonpayable",
            "type": "function"
        },
        {
            "inputs": [],
            "name": "saleTokenNum",
            "outputs": [
                {
                    "internalType": "uint256",
                    "name": "",
                    "type": "uint256"
                }
            ],
            "stateMutability": "view",
            "type": "function"
        },
        {
            "inputs": [],
            "name": "selectWinners",
            "outputs": [
                {
                    "internalType": "bool",
                    "name": "",
                    "type": "bool"
                }
            ],
            "stateMutability": "nonpayable",
            "type": "function"
        },
        {
            "inputs": [],
            "name": "startTime",
            "outputs": [
                {
                    "internalType": "uint256",
                    "name": "",
                    "type": "uint256"
                }
            ],
            "stateMutability": "view",
            "type": "function"
        },
        {
            "inputs": [],
            "name": "state",
            "outputs": [
                {
                    "internalType": "enum AuctionState",
                    "name": "",
                    "type": "uint8"
                }
            ],
            "stateMutability": "view",
            "type": "function"
        },
        {
            "inputs": [
                {
                    "internalType": "uint256",
                    "name": "_payload",
                    "type": "uint256"
                }
            ],
            "name": "updateBid",
            "outputs": [],
            "stateMutability": "payable",
            "type": "function"
        },
        {
            "inputs": [],
            "name": "updateState",
            "outputs": [],
            "stateMutability": "nonpayable",
            "type": "function"
        }
    ],
    "bytecode": "608060405234801561001057600080fd5b506040516113a83803806113a883398101604081905261002f91610082565b600080546001600160a01b0319166001600160a01b03871617905561005481426100d7565b60028190556100649083906100d7565b6001555050600391909155600455506008805460ff191690556100fe565b600080600080600060a0868803121561009a57600080fd5b85516001600160a01b03811681146100b157600080fd5b602087015160408801516060890151608090990151929a91995097965090945092505050565b808201808211156100f857634e487b7160e01b600052601160045260246000fd5b92915050565b61129b8061010d6000396000f3fe6080604052600436106100e85760003560e01c806343129de11161008a578063c19d93fb11610059578063c19d93fb14610213578063d2ef33831461023a578063df15c37e14610250578063ea8a1af01461027257600080fd5b806343129de1146101c1578063454a2ab3146101d457806378e97925146101e7578063bb349243146101fd57600080fd5b80631d8557d7116100c65780631d8557d7146101475780631eb5ea2e1461015e5780633197cbb61461017357806338af3eed1461018957600080fd5b806312065fe0146100ed578063188ec3561461010f5780631a0de74c14610122575b600080fd5b3480156100f957600080fd5b50475b6040519081526020015b60405180910390f35b34801561011b57600080fd5b50426100fc565b34801561012e57600080fd5b50610137610287565b6040519015158152602001610106565b34801561015357600080fd5b5061015c6105d3565b005b34801561016a57600080fd5b5061015c610662565b34801561017f57600080fd5b506100fc60015481565b34801561019557600080fd5b506000546101a9906001600160a01b031681565b6040516001600160a01b039091168152602001610106565b61015c6101cf3660046110eb565b610782565b61015c6101e23660046110eb565b610a58565b3480156101f357600080fd5b506100fc60025481565b34801561020957600080fd5b506100fc60045481565b34801561021f57600080fd5b5060085461022d9060ff1681565b604051610106919061111a565b34801561024657600080fd5b506100fc60035481565b34801561025c57600080fd5b50610265610cdb565b6040516101069190611142565b34801561027e57600080fd5b50610137610d6a565b60006102916105d3565b600460085460ff1660048111156102aa576102aa611104565b146102d05760405162461bcd60e51b81526004016102c7906111b1565b60405180910390fd5b600654156102dd57600080fd5b60035460005b6005546102f2906001906111ea565b8110156105ca576000610303610dbd565b80519091506001600160a01b0316158061031b575082155b1561032657506105ca565b80604001518310610468576006805460018101825560009190915281517ff652222313e28459528d920b65115c16c04f3efc82aaedc97be59f3f377c0d3f600490920291820180546001600160a01b0319166001600160a01b0390921691909117905560208201517ff652222313e28459528d920b65115c16c04f3efc82aaedc97be59f3f377c0d4082015560408201517ff652222313e28459528d920b65115c16c04f3efc82aaedc97be59f3f377c0d41820181905560608301517ff652222313e28459528d920b65115c16c04f3efc82aaedc97be59f3f377c0d42909201805460ff19169215159290921790915561042090846111ea565b81516001600160a01b0316600090815260076020526040812080546001600160a01b0319168155600181018290556002810191909155600301805460ff1916905592506105b7565b60008160400151826020015161047e9190611203565b9050600084836040015161049291906111ea565b6040840186905290506104a58286611225565b6020840190815260068054600181018255600091825285517ff652222313e28459528d920b65115c16c04f3efc82aaedc97be59f3f377c0d3f600490920291820180546001600160a01b0319166001600160a01b0390921691909117905591517ff652222313e28459528d920b65115c16c04f3efc82aaedc97be59f3f377c0d4083015560408501517ff652222313e28459528d920b65115c16c04f3efc82aaedc97be59f3f377c0d4183015560608501517ff652222313e28459528d920b65115c16c04f3efc82aaedc97be59f3f377c0d42909201805460ff19169215159290921790915594506105978282611225565b83516001600160a01b031660009081526007602052604090206001015550505b506105c360018261123c565b90506102e3565b50600191505090565b600060085460ff1660048111156105ec576105ec611104565b1480156105fa575060025442115b1561060d576008805460ff191660011790555b600160085460ff16600481111561062657610626611104565b148015610634575060015442115b1561066057600554600003610652576008805460ff19166003179055565b6008805460ff191660041790555b565b60065461066e57600080fd5b60005b600554610680906001906111ea565b8110156107795760006001600160a01b031660076000600584815481106106a9576106a961124f565b60009182526020808320909101546001600160a01b03908116845290830193909352604090910190205416146107675761076760076000600584815481106106f3576106f361124f565b60009182526020808320909101546001600160a01b039081168452908301939093526040909101812054600580549190931692600792918690811061073a5761073a61124f565b60009182526020808320909101546001600160a01b03168352820192909252604001902060010154610fbe565b61077260018261123c565b9050610671565b50610660611055565b6001544211156107c45760405162461bcd60e51b815260206004820152600d60248201526c22a72222a22fa0aaa1aa24a7a760991b60448201526064016102c7565b60025442101561080c5760405162461bcd60e51b81526020600482015260136024820152722727aa2fa9aa20a92a22a22fa0aaa1aa24a7a760691b60448201526064016102c7565b6108146105d3565b600160085460ff16600481111561082d5761082d611104565b1461084a5760405162461bcd60e51b81526004016102c7906111b1565b336000908152600760205260409020546001600160a01b0316156108995760405162461bcd60e51b81526020600482015260066024820152651393d7d0925160d21b60448201526064016102c7565b33600090815260076020908152604091829020825160808101845281546001600160a01b0316815260018201549281018390526002820154938101939093526003015460ff16151560608301526004549083906108f6903461123c565b6109009190611203565b10156109385760405162461bcd60e51b81526020600482015260076024820152661313d5d7d0925160ca1b60448201526064016102c7565b6040518060800160405280336001600160a01b03168152602001826020015134610962919061123c565b81526020808201859052606084810151151560409384015233600090815260078352839020845181546001600160a01b0319166001600160a01b039091161781559184015160018084019190915592840151600283015592909201516003909201805460ff19169215159290921790915554610384906109e39042906111ea565b10156109f9576109f54261038461123c565b6001555b7fdffd058a45e9d14132d2ab9933acf1ffaf0aa7447b7bda38d204549399b25e4a33826020015134610a2b919061123c565b604080516001600160a01b0390931683526020830191909152810184905260600160405180910390a15050565b600154421115610a9a5760405162461bcd60e51b815260206004820152600d60248201526c22a72222a22fa0aaa1aa24a7a760991b60448201526064016102c7565b600254421015610ae25760405162461bcd60e51b81526020600482015260136024820152722727aa2fa9aa20a92a22a22fa0aaa1aa24a7a760691b60448201526064016102c7565b610aea6105d3565b600160085460ff166004811115610b0357610b03611104565b14610b205760405162461bcd60e51b81526004016102c7906111b1565b600454610b2d8234611203565b1015610b655760405162461bcd60e51b81526020600482015260076024820152661313d5d7d0925160ca1b60448201526064016102c7565b336000908152600760205260409020546001600160a01b0316610c36576005805460018082019092557f036b6384b5eca791c62761152d0c79bb0604c104a5fb6f4eb0703f3154bb3db0018054336001600160a01b03199182168117909255604080516080810182528381523460208083019182528284018881526000606085018181529781526007909252939020915182549094166001600160a01b0390941693909317815591519382019390935591516002830155516003909101805460ff1916911515919091179055610c71565b60405162461bcd60e51b815260206004820152601060248201526f222aa82624a1a0aa22afa124a22222a960811b60448201526064016102c7565b61038442600154610c8291906111ea565b1015610c9857610c944261038461123c565b6001555b604080513381523460208201529081018290527f28dc9f4ca742fb1574a6514ee7d82c0858b4afb625026365ac3d8cfceb14f7889060600160405180910390a150565b60606006805480602002602001604051908101604052809291908181526020016000905b82821015610d61576000848152602090819020604080516080810182526004860290920180546001600160a01b03168352600180820154848601526002820154928401929092526003015460ff16151560608301529083529092019101610cff565b50505050905090565b6000610d746105d3565b600060085460ff166004811115610d8d57610d8d611104565b14610daa5760405162461bcd60e51b81526004016102c7906111b1565b506008805460ff19166003179055600190565b6040805160808101825260008082526020820181905291810182905260608101919091526040805160808101825260008082526020820181905260019282019290925260608101829052905b600554610e18906001906111ea565b811015610fb85760006001600160a01b03166007600060058481548110610e4157610e4161124f565b60009182526020808320909101546001600160a01b0390811684529083019390935260409091019020541614610fa65781604001518260200151610e859190611203565b6007600060058481548110610e9c57610e9c61124f565b9060005260206000200160009054906101000a90046001600160a01b03166001600160a01b03166001600160a01b03168152602001908152602001600020600201546007600060058581548110610ef557610ef561124f565b60009182526020808320909101546001600160a01b03168352820192909252604001902060010154610f279190611203565b1115610fa6576007600060058381548110610f4457610f4461124f565b60009182526020808320909101546001600160a01b0390811684528382019490945260409283019091208251608081018452815490941684526001810154918401919091526002810154918301919091526003015460ff161515606082015291505b610fb160018261123c565b9050610e09565b50919050565b6000826001600160a01b03168260405160006040518083038185875af1925050503d806000811461100b576040519150601f19603f3d011682016040523d82523d6000602084013e611010565b606091505b50509050806110505760405162461bcd60e51b815260206004820152600c60248201526b2a2920a729a322a92fa2a92960a11b60448201526064016102c7565b505050565b600080546040514792916001600160a01b03169083908381818185875af1925050503d80600081146110a3576040519150601f19603f3d011682016040523d82523d6000602084013e6110a8565b606091505b50509050806110e75760405162461bcd60e51b815260206004820152600b60248201526a2ba4aa242920abafa2a92960a91b60448201526064016102c7565b5050565b6000602082840312156110fd57600080fd5b5035919050565b634e487b7160e01b600052602160045260246000fd5b602081016005831061113c57634e487b7160e01b600052602160045260246000fd5b91905290565b602080825282518282018190526000919060409081850190868401855b828110156111a457815180516001600160a01b03168552868101518786015285810151868601526060908101511515908501526080909301929085019060010161115f565b5091979650505050505050565b60208082526009908201526829aa20aa22afa2a92960b91b604082015260600190565b634e487b7160e01b600052601160045260246000fd5b818103818111156111fd576111fd6111d4565b92915050565b60008261122057634e487b7160e01b600052601260045260246000fd5b500490565b80820281158282048414176111fd576111fd6111d4565b808201808211156111fd576111fd6111d4565b634e487b7160e01b600052603260045260246000fdfea26469706673582212201469ac208282b33661642b32a6b9f79b4d0d76268d63c99d1ab86a8546f3d28864736f6c63430008110033",
    "sourcePath": "/home/erfanfi79/Projects/smart-contract/src/contracts/Auction.sol",
    "compiler": {
        "name": "solc",
        "version": "0.8.17+commit.8df45f5f"
    },
    "functionHashes": {
        "beneficiary()": "38af3eed",
        "bid(uint256)": "454a2ab3",
        "cancel()": "ea8a1af0",
        "endTime()": "3197cbb6",
        "getBalance()": "12065fe0",
        "getTimestamp()": "188ec356",
        "getWinners()": "df15c37e",
        "minValPerToken()": "bb349243",
        "returnFunds()": "1eb5ea2e",
        "saleTokenNum()": "d2ef3383",
        "selectWinners()": "1a0de74c",
        "startTime()": "78e97925",
        "state()": "c19d93fb",
        "updateBid(uint256)": "43129de1",
        "updateState()": "1d8557d7"
    },
    "gasEstimates": {
        "creation": {
            "codeDepositCost": "952600",
            "executionCost": "infinite",
            "totalCost": "infinite"
        },
        "external": {
            "beneficiary()": "2426",
            "bid(uint256)": "65952",
            "cancel()": "61695",
            "endTime()": "2351",
            "getBalance()": "196",
            "getTimestamp()": "226",
            "getWinners()": "infinite",
            "minValPerToken()": "2373",
            "returnFunds()": "infinite",
            "saleTokenNum()": "2328",
            "selectWinners()": "infinite",
            "startTime()": "2351",
            "state()": "2373",
            "updateBid(uint256)": "65930",
            "updateState()": "59314"
        },
        "internal": {
            "getBestPrice()": "infinite",
            "transfer(address payable,uint256)": "infinite",
            "withdraw()": "infinite"
        }
    }
}