{
    "contractName": "Auction",
    "abi": [
        {
            "inputs": [
                {
                    "internalType": "address payable",
                    "name": "_beneficiary",
                    "type": "address"
                },
                {
                    "internalType": "uint256",
                    "name": "_amount",
                    "type": "uint256"
                },
                {
                    "internalType": "uint256",
                    "name": "_minimumBid",
                    "type": "uint256"
                },
                {
                    "internalType": "uint256",
                    "name": "_biddingTime",
                    "type": "uint256"
                }
            ],
            "stateMutability": "nonpayable",
            "type": "constructor"
        },
        {
            "anonymous": false,
            "inputs": [
                {
                    "indexed": false,
                    "internalType": "address",
                    "name": "winner",
                    "type": "address"
                },
                {
                    "indexed": false,
                    "internalType": "uint256",
                    "name": "amount",
                    "type": "uint256"
                }
            ],
            "name": "auctionEnded",
            "type": "event"
        },
        {
            "anonymous": false,
            "inputs": [
                {
                    "indexed": false,
                    "internalType": "address",
                    "name": "bidder",
                    "type": "address"
                },
                {
                    "indexed": false,
                    "internalType": "uint256",
                    "name": "amount",
                    "type": "uint256"
                },
                {
                    "indexed": false,
                    "internalType": "uint256",
                    "name": "payload",
                    "type": "uint256"
                }
            ],
            "name": "bidAdded",
            "type": "event"
        },
        {
            "inputs": [],
            "name": "amount",
            "outputs": [
                {
                    "internalType": "uint256",
                    "name": "",
                    "type": "uint256"
                }
            ],
            "stateMutability": "view",
            "type": "function"
        },
        {
            "inputs": [],
            "name": "auctionEndTime",
            "outputs": [
                {
                    "internalType": "uint256",
                    "name": "",
                    "type": "uint256"
                }
            ],
            "stateMutability": "view",
            "type": "function"
        },
        {
            "inputs": [],
            "name": "auctionStartTime",
            "outputs": [
                {
                    "internalType": "uint256",
                    "name": "",
                    "type": "uint256"
                }
            ],
            "stateMutability": "view",
            "type": "function"
        },
        {
            "inputs": [],
            "name": "beneficiary",
            "outputs": [
                {
                    "internalType": "address payable",
                    "name": "",
                    "type": "address"
                }
            ],
            "stateMutability": "view",
            "type": "function"
        },
        {
            "inputs": [
                {
                    "internalType": "uint256",
                    "name": "payload",
                    "type": "uint256"
                }
            ],
            "name": "bid",
            "outputs": [],
            "stateMutability": "payable",
            "type": "function"
        },
        {
            "inputs": [],
            "name": "cancel",
            "outputs": [
                {
                    "internalType": "bool",
                    "name": "",
                    "type": "bool"
                }
            ],
            "stateMutability": "nonpayable",
            "type": "function"
        },
        {
            "inputs": [],
            "name": "currentBalance",
            "outputs": [
                {
                    "internalType": "uint256",
                    "name": "",
                    "type": "uint256"
                }
            ],
            "stateMutability": "view",
            "type": "function"
        },
        {
            "inputs": [],
            "name": "minimumBid",
            "outputs": [
                {
                    "internalType": "uint256",
                    "name": "",
                    "type": "uint256"
                }
            ],
            "stateMutability": "view",
            "type": "function"
        },
        {
            "inputs": [],
            "name": "start",
            "outputs": [
                {
                    "internalType": "bool",
                    "name": "",
                    "type": "bool"
                }
            ],
            "stateMutability": "nonpayable",
            "type": "function"
        },
        {
            "inputs": [],
            "name": "state",
            "outputs": [
                {
                    "internalType": "enum AuctionState",
                    "name": "",
                    "type": "uint8"
                }
            ],
            "stateMutability": "view",
            "type": "function"
        },
        {
            "inputs": [],
            "name": "withdraw",
            "outputs": [
                {
                    "internalType": "bool",
                    "name": "",
                    "type": "bool"
                }
            ],
            "stateMutability": "payable",
            "type": "function"
        }
    ],
    "bytecode": "608060405234801561001057600080fd5b5060405161079338038061079383398101604081905261002f91610089565b600080546001600160a01b0319166001600160a01b03861617905561005742620151806100d4565b60028190556100679082906100d4565b600155506000600755600391909155600455506006805460ff191690556100fb565b6000806000806080858703121561009f57600080fd5b84516001600160a01b03811681146100b657600080fd5b60208601516040870151606090970151919890975090945092505050565b808201808211156100f557634e487b7160e01b600052601160045260246000fd5b92915050565b6106898061010a6000396000f3fe60806040526004361061009c5760003560e01c8063be9a655511610064578063be9a655514610140578063c19d93fb14610155578063ce845d1d1461017c578063d3a8638614610192578063ea8a1af0146101a8578063eb54f9ec146101bd57600080fd5b806338af3eed146100a15780633ccfd60b146100de578063454a2ab3146100f15780634b449cba14610106578063aa8c217c1461012a575b600080fd5b3480156100ad57600080fd5b506000546100c1906001600160a01b031681565b6040516001600160a01b0390911681526020015b60405180910390f35b60015b60405190151581526020016100d5565b6101046100ff36600461057c565b6101d3565b005b34801561011257600080fd5b5061011c60015481565b6040519081526020016100d5565b34801561013657600080fd5b5061011c60035481565b34801561014c57600080fd5b506100e1610417565b34801561016157600080fd5b5060065461016f9060ff1681565b6040516100d591906105ab565b34801561018857600080fd5b5061011c60075481565b34801561019e57600080fd5b5061011c60045481565b3480156101b457600080fd5b506100e16104f8565b3480156101c957600080fd5b5061011c60025481565b60018060065460ff1660048111156101ed576101ed610595565b146102135760405162461bcd60e51b815260040161020a906105d3565b60405180910390fd5b6001544211156102555760405162461bcd60e51b815260206004820152600d60248201526c22a72222a22fa0aaa1aa24a7a760991b604482015260640161020a565b60025442101561029d5760405162461bcd60e51b81526020600482015260136024820152722727aa2fa9aa20a92a22a22fa0aaa1aa24a7a760691b604482015260640161020a565b6004546102aa833461060a565b10156102e25760405162461bcd60e51b81526020600482015260076024820152661313d5d7d0925160ca1b604482015260640161020a565b34600760008282546102f4919061062c565b90915550506040805160608101825233815234602082019081529181018481526005805460018082018355600092835293517f036b6384b5eca791c62761152d0c79bb0604c104a5fb6f4eb0703f3154bb3db0600390920291820180546001600160a01b0319166001600160a01b0390921691909117905593517f036b6384b5eca791c62761152d0c79bb0604c104a5fb6f4eb0703f3154bb3db185015590517f036b6384b5eca791c62761152d0c79bb0604c104a5fb6f4eb0703f3154bb3db290930192909255805461038492906103ce90849061062c565b9091555050604080513381523460208201529081018390527f28dc9f4ca742fb1574a6514ee7d82c0858b4afb625026365ac3d8cfceb14f7889060600160405180910390a15050565b600080600254421115610432576006805460ff191660011790555b600181600481111561044657610446610595565b148015610454575060015442115b5080600481111561046757610467610595565b60065460ff16600481111561047e5761047e610595565b1461049b5760405162461bcd60e51b815260040161020a906105d3565b6002544210156104e35760405162461bcd60e51b81526020600482015260136024820152722727aa2fa9aa20a92a22a22fa0aaa1aa24a7a760691b604482015260640161020a565b50506006805460ff1916600190811790915590565b600080600254421115610513576006805460ff191660011790555b600181600481111561052757610527610595565b148015610535575060015442115b5080600481111561054857610548610595565b60065460ff16600481111561055f5761055f610595565b146104e35760405162461bcd60e51b815260040161020a906105d3565b60006020828403121561058e57600080fd5b5035919050565b634e487b7160e01b600052602160045260246000fd5b60208101600583106105cd57634e487b7160e01b600052602160045260246000fd5b91905290565b6020808252601f908201527f41756374696f6e206973206e6f7420696e20636f727265637420737461746500604082015260600190565b60008261062757634e487b7160e01b600052601260045260246000fd5b500490565b8082018082111561064d57634e487b7160e01b600052601160045260246000fd5b9291505056fea26469706673582212205866ec274ded240b0f441c37a68075fc47d8ba3e15c0536c34227710d201293664736f6c63430008110033",
    "sourcePath": "/home/erfanfi79/Projects/smart-contract/src/contracts/Auction.sol",
    "compiler": {
        "name": "solc",
        "version": "0.8.17+commit.8df45f5f"
    },
    "functionHashes": {
        "amount()": "aa8c217c",
        "auctionEndTime()": "4b449cba",
        "auctionStartTime()": "eb54f9ec",
        "beneficiary()": "38af3eed",
        "bid(uint256)": "454a2ab3",
        "cancel()": "ea8a1af0",
        "currentBalance()": "ce845d1d",
        "minimumBid()": "d3a86386",
        "start()": "be9a6555",
        "state()": "c19d93fb",
        "withdraw()": "3ccfd60b"
    },
    "gasEstimates": {
        "creation": {
            "codeDepositCost": "334600",
            "executionCost": "infinite",
            "totalCost": "infinite"
        },
        "external": {
            "amount()": "2384",
            "auctionEndTime()": "2362",
            "auctionStartTime()": "2405",
            "beneficiary()": "2327",
            "bid(uint256)": "infinite",
            "cancel()": "28953",
            "currentBalance()": "2339",
            "minimumBid()": "2361",
            "start()": "28865",
            "state()": "2373",
            "withdraw()": "186"
        }
    }
}