{
    "contractName": "Project",
    "abi": [
        {
            "inputs": [
                {
                    "internalType": "address",
                    "name": "sharifstarter",
                    "type": "address"
                },
                {
                    "internalType": "address",
                    "name": "founder",
                    "type": "address"
                },
                {
                    "internalType": "string",
                    "name": "name",
                    "type": "string"
                },
                {
                    "internalType": "string",
                    "name": "symbol",
                    "type": "string"
                },
                {
                    "internalType": "string",
                    "name": "description",
                    "type": "string"
                },
                {
                    "internalType": "uint256",
                    "name": "totalSupply",
                    "type": "uint256"
                }
            ],
            "stateMutability": "nonpayable",
            "type": "constructor"
        },
        {
            "anonymous": false,
            "inputs": [
                {
                    "indexed": true,
                    "internalType": "address",
                    "name": "owner",
                    "type": "address"
                },
                {
                    "indexed": true,
                    "internalType": "address",
                    "name": "spender",
                    "type": "address"
                },
                {
                    "indexed": false,
                    "internalType": "uint256",
                    "name": "value",
                    "type": "uint256"
                }
            ],
            "name": "Approval",
            "type": "event"
        },
        {
            "anonymous": false,
            "inputs": [
                {
                    "indexed": true,
                    "internalType": "address",
                    "name": "from",
                    "type": "address"
                },
                {
                    "indexed": true,
                    "internalType": "address",
                    "name": "to",
                    "type": "address"
                },
                {
                    "indexed": false,
                    "internalType": "uint256",
                    "name": "value",
                    "type": "uint256"
                }
            ],
            "name": "Transfer",
            "type": "event"
        },
        {
            "inputs": [
                {
                    "internalType": "address",
                    "name": "owner",
                    "type": "address"
                },
                {
                    "internalType": "address",
                    "name": "spender",
                    "type": "address"
                }
            ],
            "name": "allowance",
            "outputs": [
                {
                    "internalType": "uint256",
                    "name": "",
                    "type": "uint256"
                }
            ],
            "stateMutability": "view",
            "type": "function"
        },
        {
            "inputs": [
                {
                    "internalType": "address",
                    "name": "spender",
                    "type": "address"
                },
                {
                    "internalType": "uint256",
                    "name": "amount",
                    "type": "uint256"
                }
            ],
            "name": "approve",
            "outputs": [
                {
                    "internalType": "bool",
                    "name": "",
                    "type": "bool"
                }
            ],
            "stateMutability": "nonpayable",
            "type": "function"
        },
        {
            "inputs": [],
            "name": "approveProject",
            "outputs": [],
            "stateMutability": "nonpayable",
            "type": "function"
        },
        {
            "inputs": [
                {
                    "internalType": "uint256",
                    "name": "",
                    "type": "uint256"
                }
            ],
            "name": "auctions",
            "outputs": [
                {
                    "internalType": "contract Auction",
                    "name": "",
                    "type": "address"
                }
            ],
            "stateMutability": "view",
            "type": "function"
        },
        {
            "inputs": [
                {
                    "internalType": "address",
                    "name": "account",
                    "type": "address"
                }
            ],
            "name": "balanceOf",
            "outputs": [
                {
                    "internalType": "uint256",
                    "name": "",
                    "type": "uint256"
                }
            ],
            "stateMutability": "view",
            "type": "function"
        },
        {
            "inputs": [],
            "name": "canelProject",
            "outputs": [],
            "stateMutability": "nonpayable",
            "type": "function"
        },
        {
            "inputs": [
                {
                    "internalType": "uint256",
                    "name": "biddingTime",
                    "type": "uint256"
                },
                {
                    "internalType": "uint256",
                    "name": "amount",
                    "type": "uint256"
                },
                {
                    "internalType": "uint256",
                    "name": "minimumBid",
                    "type": "uint256"
                }
            ],
            "name": "createAuction",
            "outputs": [
                {
                    "internalType": "bool",
                    "name": "",
                    "type": "bool"
                }
            ],
            "stateMutability": "nonpayable",
            "type": "function"
        },
        {
            "inputs": [],
            "name": "decimals",
            "outputs": [
                {
                    "internalType": "uint8",
                    "name": "",
                    "type": "uint8"
                }
            ],
            "stateMutability": "view",
            "type": "function"
        },
        {
            "inputs": [
                {
                    "internalType": "address",
                    "name": "spender",
                    "type": "address"
                },
                {
                    "internalType": "uint256",
                    "name": "subtractedValue",
                    "type": "uint256"
                }
            ],
            "name": "decreaseAllowance",
            "outputs": [
                {
                    "internalType": "bool",
                    "name": "",
                    "type": "bool"
                }
            ],
            "stateMutability": "nonpayable",
            "type": "function"
        },
        {
            "inputs": [],
            "name": "fundProject",
            "outputs": [],
            "stateMutability": "nonpayable",
            "type": "function"
        },
        {
            "inputs": [],
            "name": "getAuctions",
            "outputs": [
                {
                    "internalType": "contract Auction[]",
                    "name": "",
                    "type": "address[]"
                }
            ],
            "stateMutability": "view",
            "type": "function"
        },
        {
            "inputs": [
                {
                    "internalType": "address",
                    "name": "spender",
                    "type": "address"
                },
                {
                    "internalType": "uint256",
                    "name": "addedValue",
                    "type": "uint256"
                }
            ],
            "name": "increaseAllowance",
            "outputs": [
                {
                    "internalType": "bool",
                    "name": "",
                    "type": "bool"
                }
            ],
            "stateMutability": "nonpayable",
            "type": "function"
        },
        {
            "inputs": [],
            "name": "isApprovedForCrowdFund",
            "outputs": [
                {
                    "internalType": "bool",
                    "name": "",
                    "type": "bool"
                }
            ],
            "stateMutability": "view",
            "type": "function"
        },
        {
            "inputs": [],
            "name": "name",
            "outputs": [
                {
                    "internalType": "string",
                    "name": "",
                    "type": "string"
                }
            ],
            "stateMutability": "view",
            "type": "function"
        },
        {
            "inputs": [],
            "name": "projectDetails",
            "outputs": [
                {
                    "internalType": "address",
                    "name": "founder",
                    "type": "address"
                },
                {
                    "internalType": "string",
                    "name": "name",
                    "type": "string"
                },
                {
                    "internalType": "string",
                    "name": "symbol",
                    "type": "string"
                },
                {
                    "internalType": "string",
                    "name": "description",
                    "type": "string"
                },
                {
                    "internalType": "uint256",
                    "name": "totalSupply",
                    "type": "uint256"
                }
            ],
            "stateMutability": "view",
            "type": "function"
        },
        {
            "inputs": [],
            "name": "releaseProject",
            "outputs": [],
            "stateMutability": "nonpayable",
            "type": "function"
        },
        {
            "inputs": [
                {
                    "internalType": "uint256",
                    "name": "",
                    "type": "uint256"
                }
            ],
            "name": "shareHolders",
            "outputs": [
                {
                    "internalType": "address",
                    "name": "",
                    "type": "address"
                }
            ],
            "stateMutability": "view",
            "type": "function"
        },
        {
            "inputs": [],
            "name": "stage",
            "outputs": [
                {
                    "internalType": "enum DevelopmentStages",
                    "name": "",
                    "type": "uint8"
                }
            ],
            "stateMutability": "view",
            "type": "function"
        },
        {
            "inputs": [],
            "name": "symbol",
            "outputs": [
                {
                    "internalType": "string",
                    "name": "",
                    "type": "string"
                }
            ],
            "stateMutability": "view",
            "type": "function"
        },
        {
            "inputs": [],
            "name": "tempAddress",
            "outputs": [
                {
                    "internalType": "address",
                    "name": "",
                    "type": "address"
                }
            ],
            "stateMutability": "view",
            "type": "function"
        },
        {
            "inputs": [],
            "name": "totalSupply",
            "outputs": [
                {
                    "internalType": "uint256",
                    "name": "",
                    "type": "uint256"
                }
            ],
            "stateMutability": "view",
            "type": "function"
        },
        {
            "inputs": [
                {
                    "internalType": "address",
                    "name": "to",
                    "type": "address"
                },
                {
                    "internalType": "uint256",
                    "name": "amount",
                    "type": "uint256"
                }
            ],
            "name": "transfer",
            "outputs": [
                {
                    "internalType": "bool",
                    "name": "",
                    "type": "bool"
                }
            ],
            "stateMutability": "nonpayable",
            "type": "function"
        },
        {
            "inputs": [
                {
                    "internalType": "address",
                    "name": "from",
                    "type": "address"
                },
                {
                    "internalType": "address",
                    "name": "to",
                    "type": "address"
                },
                {
                    "internalType": "uint256",
                    "name": "amount",
                    "type": "uint256"
                }
            ],
            "name": "transferFrom",
            "outputs": [
                {
                    "internalType": "bool",
                    "name": "",
                    "type": "bool"
                }
            ],
            "stateMutability": "nonpayable",
            "type": "function"
        }
    ],
    "bytecode": "60806040526005805460ff19908116909155600b805490911690553480156200002757600080fd5b5060405162001f5738038062001f578339810160408190526200004a91620003b3565b838360036200005a838262000501565b50600462000069828262000501565b50506040805160a0810182526001600160a01b038816808252602082018890529181018690526060810185905260808101849052600680546001600160a01b031916909217825591506007620000c0878262000501565b5060408201516002820190620000d7908262000501565b5060608201516003820190620000ee908262000501565b506080919091015160049091015562000132866200010f6012600a620006e2565b600a546200012090600590620006f7565b6200012c91906200071a565b620001e4565b6200016485620001456012600a620006e2565b600a54600590620001589060046200071a565b620001209190620006f7565b5050600c80546001818101835560008390527fdf6966c971051c3d54ec59162606531493a51404a002842f56009d7e5cf4a8c791820180546001600160a01b039889166001600160a01b0319918216811790925584549283019094559101805495909616948216949094179094555050600d80549092161790556200074a565b6001600160a01b0382166200023f5760405162461bcd60e51b815260206004820152601f60248201527f45524332303a206d696e7420746f20746865207a65726f206164647265737300604482015260640160405180910390fd5b806002600082825462000253919062000734565b90915550506001600160a01b038216600090815260208190526040812080548392906200028290849062000734565b90915550506040518181526001600160a01b038316906000907fddf252ad1be2c89b69c2b068fc378daa952ba7f163c4a11628f55a4df523b3ef9060200160405180910390a35050565b505050565b80516001600160a01b0381168114620002e957600080fd5b919050565b634e487b7160e01b600052604160045260246000fd5b600082601f8301126200031657600080fd5b81516001600160401b0380821115620003335762000333620002ee565b604051601f8301601f19908116603f011681019082821181831017156200035e576200035e620002ee565b816040528381526020925086838588010111156200037b57600080fd5b600091505b838210156200039f578582018301518183018401529082019062000380565b600093810190920192909252949350505050565b60008060008060008060c08789031215620003cd57600080fd5b620003d887620002d1565b9550620003e860208801620002d1565b60408801519095506001600160401b03808211156200040657600080fd5b620004148a838b0162000304565b955060608901519150808211156200042b57600080fd5b620004398a838b0162000304565b945060808901519150808211156200045057600080fd5b506200045f89828a0162000304565b92505060a087015190509295509295509295565b600181811c908216806200048857607f821691505b602082108103620004a957634e487b7160e01b600052602260045260246000fd5b50919050565b601f821115620002cc57600081815260208120601f850160051c81016020861015620004d85750805b601f850160051c820191505b81811015620004f957828155600101620004e4565b505050505050565b81516001600160401b038111156200051d576200051d620002ee565b62000535816200052e845462000473565b84620004af565b602080601f8311600181146200056d5760008415620005545750858301515b600019600386901b1c1916600185901b178555620004f9565b600085815260208120601f198616915b828110156200059e578886015182559484019460019091019084016200057d565b5085821015620005bd5787850151600019600388901b60f8161c191681555b5050505050600190811b01905550565b634e487b7160e01b600052601160045260246000fd5b600181815b8085111562000624578160001904821115620006085762000608620005cd565b808516156200061657918102915b93841c9390800290620005e8565b509250929050565b6000826200063d57506001620006dc565b816200064c57506000620006dc565b8160018114620006655760028114620006705762000690565b6001915050620006dc565b60ff841115620006845762000684620005cd565b50506001821b620006dc565b5060208310610133831016604e8410600b8410161715620006b5575081810a620006dc565b620006c18383620005e3565b8060001904821115620006d857620006d8620005cd565b0290505b92915050565b6000620006f083836200062c565b9392505050565b6000826200071557634e487b7160e01b600052601260045260246000fd5b500490565b8082028115828204841417620006dc57620006dc620005cd565b80820180821115620006dc57620006dc620005cd565b6117fd806200075a6000396000f3fe608060405234801561001057600080fd5b506004361061014d5760003560e01c806395d89b41116100c3578063c040e6b81161007c578063c040e6b8146102c4578063cda4beef146102de578063d63dc661146102f1578063d7c06919146102f9578063db90cb2d1461030e578063dd62ed3e1461031657600080fd5b806395d89b411461026d578063a457c2d714610275578063a9059cbb14610288578063b4e830f11461029b578063bf2a0a5e146102af578063bfe4e27d146102bc57600080fd5b80632accd144116101155780632accd144146101e3578063313ce567146101fc578063395093511461020b578063571a26a01461021e57806370a08231146102315780637427a40c1461025a57600080fd5b806306fdde0314610152578063095ea7b31461017057806318160ddd1461019357806322c5dec7146101a557806323b872dd146101d0575b600080fd5b61015a610329565b6040516101679190610d9f565b60405180910390f35b61018361017e366004610dd5565b6103bb565b6040519015158152602001610167565b6002545b604051908152602001610167565b600d546101b8906001600160a01b031681565b6040516001600160a01b039091168152602001610167565b6101836101de366004610dff565b6103d5565b6101eb6103f9565b604051610167959493929190610e3b565b60405160128152602001610167565b610183610219366004610dd5565b6105bc565b6101b861022c366004610e98565b6105de565b61019761023f366004610eb1565b6001600160a01b031660009081526020819052604090205490565b6101b8610268366004610e98565b610608565b61015a610618565b610183610283366004610dd5565b610627565b610183610296366004610dd5565b6106a7565b6102ad600b805460ff19166001179055565b005b600b546101839060ff1681565b6102ad6106b5565b6005546102d19060ff1681565b6040516101679190610ee2565b6101836102ec366004610f0a565b6106f6565b6102ad6108d8565b610301610915565b6040516101679190610f36565b6102ad610976565b610197610324366004610f83565b6109b4565b60606003805461033890610fb6565b80601f016020809104026020016040519081016040528092919081815260200182805461036490610fb6565b80156103b15780601f10610386576101008083540402835291602001916103b1565b820191906000526020600020905b81548152906001019060200180831161039457829003601f168201915b5050505050905090565b6000336103c98185856109df565b60019150505b92915050565b6000336103e3858285610b03565b6103ee858585610b7d565b506001949350505050565b60068054600780546001600160a01b03909216929161041790610fb6565b80601f016020809104026020016040519081016040528092919081815260200182805461044390610fb6565b80156104905780601f1061046557610100808354040283529160200191610490565b820191906000526020600020905b81548152906001019060200180831161047357829003601f168201915b5050505050908060020180546104a590610fb6565b80601f01602080910402602001604051908101604052809291908181526020018280546104d190610fb6565b801561051e5780601f106104f35761010080835404028352916020019161051e565b820191906000526020600020905b81548152906001019060200180831161050157829003601f168201915b50505050509080600301805461053390610fb6565b80601f016020809104026020016040519081016040528092919081815260200182805461055f90610fb6565b80156105ac5780601f10610581576101008083540402835291602001916105ac565b820191906000526020600020905b81548152906001019060200180831161058f57829003601f168201915b5050505050908060040154905085565b6000336103c98185856105cf83836109b4565b6105d99190610ff0565b6109df565b600e81815481106105ee57600080fd5b6000918252602090912001546001600160a01b0316905081565b600c81815481106105ee57600080fd5b60606004805461033890610fb6565b6000338161063582866109b4565b90508381101561069a5760405162461bcd60e51b815260206004820152602560248201527f45524332303a2064656372656173656420616c6c6f77616e63652062656c6f77604482015264207a65726f60d81b60648201526084015b60405180910390fd5b6103ee82868684036109df565b6000336103c9818585610b7d565b6006546001600160a01b031633146106df5760405162461bcd60e51b815260040161069190611011565b600580546002919060ff19166001835b0217905550565b60008060055460ff16600381111561071057610710610ecc565b036107495760405162461bcd60e51b815260206004820152600960248201526829aa20a3a2afa2a92960b91b6044820152606401610691565b600160055460ff16600381111561076257610762610ecc565b036107d257600b5460ff166107a85760405162461bcd60e51b815260206004820152600c60248201526b1393d517d054141493d5915160a21b6044820152606401610691565b6006546001600160a01b031633146107d25760405162461bcd60e51b815260040161069190611011565b3360009081526020819052604090205483106108245760405162461bcd60e51b8152602060048201526011602482015270125394d551919250d251539517d1955391607a1b6044820152606401610691565b60003384848760405161083690610d4b565b6001600160a01b039094168452602084019290925260408301526060820152608001604051809103906000f080158015610874573d6000803e3d6000fd5b50600e80546001810182556000919091527fbb7b4a454dc3493923482f07822329ed19e8244eff582cc204f8554c3620c3fd0180546001600160a01b0319166001600160a01b0383811691909117909155600d549192506103ee9133911686610b7d565b6006546001600160a01b031633146109025760405162461bcd60e51b815260040161069190611011565b600580546001919060ff191682806106ef565b6060600e8054806020026020016040519081016040528092919081815260200182805480156103b157602002820191906000526020600020905b81546001600160a01b0316815260019091019060200180831161094f575050505050905090565b6006546001600160a01b031633146109a05760405162461bcd60e51b815260040161069190611011565b600580546003919060ff19166001836106ef565b6001600160a01b03918216600090815260016020908152604080832093909416825291909152205490565b6001600160a01b038316610a415760405162461bcd60e51b8152602060048201526024808201527f45524332303a20617070726f76652066726f6d20746865207a65726f206164646044820152637265737360e01b6064820152608401610691565b6001600160a01b038216610aa25760405162461bcd60e51b815260206004820152602260248201527f45524332303a20617070726f766520746f20746865207a65726f206164647265604482015261737360f01b6064820152608401610691565b6001600160a01b0383811660008181526001602090815260408083209487168084529482529182902085905590518481527f8c5be1e5ebec7d5bd14f71427d1e84f3dd0314c0f7b2291e5b200ac8c7c3b925910160405180910390a3505050565b6000610b0f84846109b4565b90506000198114610b775781811015610b6a5760405162461bcd60e51b815260206004820152601d60248201527f45524332303a20696e73756666696369656e7420616c6c6f77616e63650000006044820152606401610691565b610b7784848484036109df565b50505050565b6001600160a01b038316610be15760405162461bcd60e51b815260206004820152602560248201527f45524332303a207472616e736665722066726f6d20746865207a65726f206164604482015264647265737360d81b6064820152608401610691565b6001600160a01b038216610c435760405162461bcd60e51b815260206004820152602360248201527f45524332303a207472616e7366657220746f20746865207a65726f206164647260448201526265737360e81b6064820152608401610691565b6001600160a01b03831660009081526020819052604090205481811015610cbb5760405162461bcd60e51b815260206004820152602660248201527f45524332303a207472616e7366657220616d6f756e7420657863656564732062604482015265616c616e636560d01b6064820152608401610691565b6001600160a01b03808516600090815260208190526040808220858503905591851681529081208054849290610cf2908490610ff0565b92505081905550826001600160a01b0316846001600160a01b03167fddf252ad1be2c89b69c2b068fc378daa952ba7f163c4a11628f55a4df523b3ef84604051610d3e91815260200190565b60405180910390a3610b77565b610793806200103583390190565b6000815180845260005b81811015610d7f57602081850181015186830182015201610d63565b506000602082860101526020601f19601f83011685010191505092915050565b602081526000610db26020830184610d59565b9392505050565b80356001600160a01b0381168114610dd057600080fd5b919050565b60008060408385031215610de857600080fd5b610df183610db9565b946020939093013593505050565b600080600060608486031215610e1457600080fd5b610e1d84610db9565b9250610e2b60208501610db9565b9150604084013590509250925092565b6001600160a01b038616815260a060208201819052600090610e5f90830187610d59565b8281036040840152610e718187610d59565b90508281036060840152610e858186610d59565b9150508260808301529695505050505050565b600060208284031215610eaa57600080fd5b5035919050565b600060208284031215610ec357600080fd5b610db282610db9565b634e487b7160e01b600052602160045260246000fd5b6020810160048310610f0457634e487b7160e01b600052602160045260246000fd5b91905290565b600080600060608486031215610f1f57600080fd5b505081359360208301359350604090920135919050565b6020808252825182820181905260009190848201906040850190845b81811015610f775783516001600160a01b031683529284019291840191600101610f52565b50909695505050505050565b60008060408385031215610f9657600080fd5b610f9f83610db9565b9150610fad60208401610db9565b90509250929050565b600181811c90821680610fca57607f821691505b602082108103610fea57634e487b7160e01b600052602260045260246000fd5b50919050565b808201808211156103cf57634e487b7160e01b600052601160045260246000fd5b60208082526009908201526827afa327aaa72222a960b91b60408201526060019056fe608060405234801561001057600080fd5b5060405161079338038061079383398101604081905261002f91610089565b600080546001600160a01b0319166001600160a01b03861617905561005742620151806100d4565b60028190556100679082906100d4565b600155506000600755600391909155600455506006805460ff191690556100fb565b6000806000806080858703121561009f57600080fd5b84516001600160a01b03811681146100b657600080fd5b60208601516040870151606090970151919890975090945092505050565b808201808211156100f557634e487b7160e01b600052601160045260246000fd5b92915050565b6106898061010a6000396000f3fe60806040526004361061009c5760003560e01c8063be9a655511610064578063be9a655514610140578063c19d93fb14610155578063ce845d1d1461017c578063d3a8638614610192578063ea8a1af0146101a8578063eb54f9ec146101bd57600080fd5b806338af3eed146100a15780633ccfd60b146100de578063454a2ab3146100f15780634b449cba14610106578063aa8c217c1461012a575b600080fd5b3480156100ad57600080fd5b506000546100c1906001600160a01b031681565b6040516001600160a01b0390911681526020015b60405180910390f35b60015b60405190151581526020016100d5565b6101046100ff36600461057c565b6101d3565b005b34801561011257600080fd5b5061011c60015481565b6040519081526020016100d5565b34801561013657600080fd5b5061011c60035481565b34801561014c57600080fd5b506100e1610417565b34801561016157600080fd5b5060065461016f9060ff1681565b6040516100d591906105ab565b34801561018857600080fd5b5061011c60075481565b34801561019e57600080fd5b5061011c60045481565b3480156101b457600080fd5b506100e16104f8565b3480156101c957600080fd5b5061011c60025481565b60018060065460ff1660048111156101ed576101ed610595565b146102135760405162461bcd60e51b815260040161020a906105d3565b60405180910390fd5b6001544211156102555760405162461bcd60e51b815260206004820152600d60248201526c22a72222a22fa0aaa1aa24a7a760991b604482015260640161020a565b60025442101561029d5760405162461bcd60e51b81526020600482015260136024820152722727aa2fa9aa20a92a22a22fa0aaa1aa24a7a760691b604482015260640161020a565b6004546102aa833461060a565b10156102e25760405162461bcd60e51b81526020600482015260076024820152661313d5d7d0925160ca1b604482015260640161020a565b34600760008282546102f4919061062c565b90915550506040805160608101825233815234602082019081529181018481526005805460018082018355600092835293517f036b6384b5eca791c62761152d0c79bb0604c104a5fb6f4eb0703f3154bb3db0600390920291820180546001600160a01b0319166001600160a01b0390921691909117905593517f036b6384b5eca791c62761152d0c79bb0604c104a5fb6f4eb0703f3154bb3db185015590517f036b6384b5eca791c62761152d0c79bb0604c104a5fb6f4eb0703f3154bb3db290930192909255805461038492906103ce90849061062c565b9091555050604080513381523460208201529081018390527f28dc9f4ca742fb1574a6514ee7d82c0858b4afb625026365ac3d8cfceb14f7889060600160405180910390a15050565b600080600254421115610432576006805460ff191660011790555b600181600481111561044657610446610595565b148015610454575060015442115b5080600481111561046757610467610595565b60065460ff16600481111561047e5761047e610595565b1461049b5760405162461bcd60e51b815260040161020a906105d3565b6002544210156104e35760405162461bcd60e51b81526020600482015260136024820152722727aa2fa9aa20a92a22a22fa0aaa1aa24a7a760691b604482015260640161020a565b50506006805460ff1916600190811790915590565b600080600254421115610513576006805460ff191660011790555b600181600481111561052757610527610595565b148015610535575060015442115b5080600481111561054857610548610595565b60065460ff16600481111561055f5761055f610595565b146104e35760405162461bcd60e51b815260040161020a906105d3565b60006020828403121561058e57600080fd5b5035919050565b634e487b7160e01b600052602160045260246000fd5b60208101600583106105cd57634e487b7160e01b600052602160045260246000fd5b91905290565b6020808252601f908201527f41756374696f6e206973206e6f7420696e20636f727265637420737461746500604082015260600190565b60008261062757634e487b7160e01b600052601260045260246000fd5b500490565b8082018082111561064d57634e487b7160e01b600052601160045260246000fd5b9291505056fea26469706673582212205866ec274ded240b0f441c37a68075fc47d8ba3e15c0536c34227710d201293664736f6c63430008110033a26469706673582212202b59f13b82b52ebac808f71deaed244580a53390b163d2e1c28089f6bd67056464736f6c63430008110033",
    "sourcePath": "/home/erfanfi79/Projects/smart-contract/src/contracts/Project.sol",
    "compiler": {
        "name": "solc",
        "version": "0.8.17+commit.8df45f5f"
    },
    "functionHashes": {
        "allowance(address,address)": "dd62ed3e",
        "approve(address,uint256)": "095ea7b3",
        "approveProject()": "b4e830f1",
        "auctions(uint256)": "571a26a0",
        "balanceOf(address)": "70a08231",
        "canelProject()": "db90cb2d",
        "createAuction(uint256,uint256,uint256)": "cda4beef",
        "decimals()": "313ce567",
        "decreaseAllowance(address,uint256)": "a457c2d7",
        "fundProject()": "d63dc661",
        "getAuctions()": "d7c06919",
        "increaseAllowance(address,uint256)": "39509351",
        "isApprovedForCrowdFund()": "bf2a0a5e",
        "name()": "06fdde03",
        "projectDetails()": "2accd144",
        "releaseProject()": "bfe4e27d",
        "shareHolders(uint256)": "7427a40c",
        "stage()": "c040e6b8",
        "symbol()": "95d89b41",
        "tempAddress()": "22c5dec7",
        "totalSupply()": "18160ddd",
        "transfer(address,uint256)": "a9059cbb",
        "transferFrom(address,address,uint256)": "23b872dd"
    },
    "gasEstimates": {
        "creation": {
            "codeDepositCost": "1228200",
            "executionCost": "infinite",
            "totalCost": "infinite"
        },
        "external": {
            "allowance(address,address)": "infinite",
            "approve(address,uint256)": "24651",
            "approveProject()": "24445",
            "auctions(uint256)": "4703",
            "balanceOf(address)": "2651",
            "canelProject()": "26649",
            "createAuction(uint256,uint256,uint256)": "infinite",
            "decimals()": "222",
            "decreaseAllowance(address,uint256)": "26995",
            "fundProject()": "26605",
            "getAuctions()": "infinite",
            "increaseAllowance(address,uint256)": "infinite",
            "isApprovedForCrowdFund()": "2421",
            "name()": "infinite",
            "projectDetails()": "infinite",
            "releaseProject()": "26661",
            "shareHolders(uint256)": "4747",
            "stage()": "2373",
            "symbol()": "infinite",
            "tempAddress()": "2427",
            "totalSupply()": "2349",
            "transfer(address,uint256)": "infinite",
            "transferFrom(address,address,uint256)": "infinite"
        }
    }
}