{
    "contractName": "Project",
    "abi": [
        {
            "inputs": [
                {
                    "internalType": "address",
                    "name": "_sharifstarter",
                    "type": "address"
                },
                {
                    "internalType": "address",
                    "name": "_manager",
                    "type": "address"
                },
                {
                    "internalType": "address",
                    "name": "_founder",
                    "type": "address"
                },
                {
                    "internalType": "string",
                    "name": "name",
                    "type": "string"
                },
                {
                    "internalType": "string",
                    "name": "symbol",
                    "type": "string"
                },
                {
                    "internalType": "string",
                    "name": "description",
                    "type": "string"
                },
                {
                    "internalType": "uint256",
                    "name": "totalSupply",
                    "type": "uint256"
                }
            ],
            "stateMutability": "nonpayable",
            "type": "constructor"
        },
        {
            "anonymous": false,
            "inputs": [
                {
                    "indexed": true,
                    "internalType": "address",
                    "name": "owner",
                    "type": "address"
                },
                {
                    "indexed": true,
                    "internalType": "address",
                    "name": "spender",
                    "type": "address"
                },
                {
                    "indexed": false,
                    "internalType": "uint256",
                    "name": "value",
                    "type": "uint256"
                }
            ],
            "name": "Approval",
            "type": "event"
        },
        {
            "anonymous": false,
            "inputs": [
                {
                    "indexed": true,
                    "internalType": "address",
                    "name": "from",
                    "type": "address"
                },
                {
                    "indexed": true,
                    "internalType": "address",
                    "name": "to",
                    "type": "address"
                },
                {
                    "indexed": false,
                    "internalType": "uint256",
                    "name": "value",
                    "type": "uint256"
                }
            ],
            "name": "Transfer",
            "type": "event"
        },
        {
            "inputs": [
                {
                    "internalType": "address",
                    "name": "owner",
                    "type": "address"
                },
                {
                    "internalType": "address",
                    "name": "spender",
                    "type": "address"
                }
            ],
            "name": "allowance",
            "outputs": [
                {
                    "internalType": "uint256",
                    "name": "",
                    "type": "uint256"
                }
            ],
            "stateMutability": "view",
            "type": "function"
        },
        {
            "inputs": [
                {
                    "internalType": "address",
                    "name": "spender",
                    "type": "address"
                },
                {
                    "internalType": "uint256",
                    "name": "amount",
                    "type": "uint256"
                }
            ],
            "name": "approve",
            "outputs": [
                {
                    "internalType": "bool",
                    "name": "",
                    "type": "bool"
                }
            ],
            "stateMutability": "nonpayable",
            "type": "function"
        },
        {
            "inputs": [],
            "name": "approveProject",
            "outputs": [],
            "stateMutability": "nonpayable",
            "type": "function"
        },
        {
            "inputs": [
                {
                    "internalType": "uint256",
                    "name": "",
                    "type": "uint256"
                }
            ],
            "name": "auctions",
            "outputs": [
                {
                    "internalType": "contract Auction",
                    "name": "",
                    "type": "address"
                }
            ],
            "stateMutability": "view",
            "type": "function"
        },
        {
            "inputs": [
                {
                    "internalType": "address",
                    "name": "account",
                    "type": "address"
                }
            ],
            "name": "balanceOf",
            "outputs": [
                {
                    "internalType": "uint256",
                    "name": "",
                    "type": "uint256"
                }
            ],
            "stateMutability": "view",
            "type": "function"
        },
        {
            "inputs": [
                {
                    "internalType": "address",
                    "name": "_address",
                    "type": "address"
                }
            ],
            "name": "calcAuctionResult",
            "outputs": [],
            "stateMutability": "nonpayable",
            "type": "function"
        },
        {
            "inputs": [],
            "name": "canelProject",
            "outputs": [],
            "stateMutability": "nonpayable",
            "type": "function"
        },
        {
            "inputs": [
                {
                    "internalType": "uint256",
                    "name": "biddingTime",
                    "type": "uint256"
                },
                {
                    "internalType": "uint256",
                    "name": "amount",
                    "type": "uint256"
                },
                {
                    "internalType": "uint256",
                    "name": "minimumBid",
                    "type": "uint256"
                },
                {
                    "internalType": "uint256",
                    "name": "delayedStartTime",
                    "type": "uint256"
                }
            ],
            "name": "createAuction",
            "outputs": [
                {
                    "internalType": "bool",
                    "name": "",
                    "type": "bool"
                }
            ],
            "stateMutability": "nonpayable",
            "type": "function"
        },
        {
            "inputs": [],
            "name": "decimals",
            "outputs": [
                {
                    "internalType": "uint8",
                    "name": "",
                    "type": "uint8"
                }
            ],
            "stateMutability": "view",
            "type": "function"
        },
        {
            "inputs": [
                {
                    "internalType": "address",
                    "name": "spender",
                    "type": "address"
                },
                {
                    "internalType": "uint256",
                    "name": "subtractedValue",
                    "type": "uint256"
                }
            ],
            "name": "decreaseAllowance",
            "outputs": [
                {
                    "internalType": "bool",
                    "name": "",
                    "type": "bool"
                }
            ],
            "stateMutability": "nonpayable",
            "type": "function"
        },
        {
            "inputs": [],
            "name": "fundProject",
            "outputs": [],
            "stateMutability": "nonpayable",
            "type": "function"
        },
        {
            "inputs": [],
            "name": "getAuctions",
            "outputs": [
                {
                    "internalType": "contract Auction[]",
                    "name": "",
                    "type": "address[]"
                }
            ],
            "stateMutability": "view",
            "type": "function"
        },
        {
            "inputs": [
                {
                    "internalType": "address",
                    "name": "spender",
                    "type": "address"
                },
                {
                    "internalType": "uint256",
                    "name": "addedValue",
                    "type": "uint256"
                }
            ],
            "name": "increaseAllowance",
            "outputs": [
                {
                    "internalType": "bool",
                    "name": "",
                    "type": "bool"
                }
            ],
            "stateMutability": "nonpayable",
            "type": "function"
        },
        {
            "inputs": [],
            "name": "isApprovedForCrowdFund",
            "outputs": [
                {
                    "internalType": "bool",
                    "name": "",
                    "type": "bool"
                }
            ],
            "stateMutability": "view",
            "type": "function"
        },
        {
            "inputs": [],
            "name": "manager",
            "outputs": [
                {
                    "internalType": "address",
                    "name": "",
                    "type": "address"
                }
            ],
            "stateMutability": "view",
            "type": "function"
        },
        {
            "inputs": [],
            "name": "name",
            "outputs": [
                {
                    "internalType": "string",
                    "name": "",
                    "type": "string"
                }
            ],
            "stateMutability": "view",
            "type": "function"
        },
        {
            "inputs": [],
            "name": "projectDetails",
            "outputs": [
                {
                    "internalType": "address",
                    "name": "founder",
                    "type": "address"
                },
                {
                    "internalType": "string",
                    "name": "name",
                    "type": "string"
                },
                {
                    "internalType": "string",
                    "name": "symbol",
                    "type": "string"
                },
                {
                    "internalType": "string",
                    "name": "description",
                    "type": "string"
                },
                {
                    "internalType": "uint256",
                    "name": "totalSupply",
                    "type": "uint256"
                }
            ],
            "stateMutability": "view",
            "type": "function"
        },
        {
            "inputs": [],
            "name": "releaseProject",
            "outputs": [],
            "stateMutability": "nonpayable",
            "type": "function"
        },
        {
            "inputs": [],
            "name": "stage",
            "outputs": [
                {
                    "internalType": "enum DevelopmentStages",
                    "name": "",
                    "type": "uint8"
                }
            ],
            "stateMutability": "view",
            "type": "function"
        },
        {
            "inputs": [],
            "name": "symbol",
            "outputs": [
                {
                    "internalType": "string",
                    "name": "",
                    "type": "string"
                }
            ],
            "stateMutability": "view",
            "type": "function"
        },
        {
            "inputs": [],
            "name": "totalSupply",
            "outputs": [
                {
                    "internalType": "uint256",
                    "name": "",
                    "type": "uint256"
                }
            ],
            "stateMutability": "view",
            "type": "function"
        },
        {
            "inputs": [
                {
                    "internalType": "address",
                    "name": "to",
                    "type": "address"
                },
                {
                    "internalType": "uint256",
                    "name": "amount",
                    "type": "uint256"
                }
            ],
            "name": "transfer",
            "outputs": [
                {
                    "internalType": "bool",
                    "name": "",
                    "type": "bool"
                }
            ],
            "stateMutability": "nonpayable",
            "type": "function"
        },
        {
            "inputs": [
                {
                    "internalType": "address",
                    "name": "from",
                    "type": "address"
                },
                {
                    "internalType": "address",
                    "name": "to",
                    "type": "address"
                },
                {
                    "internalType": "uint256",
                    "name": "amount",
                    "type": "uint256"
                }
            ],
            "name": "transferFrom",
            "outputs": [
                {
                    "internalType": "bool",
                    "name": "",
                    "type": "bool"
                }
            ],
            "stateMutability": "nonpayable",
            "type": "function"
        }
    ],
    "bytecode": "60806040526005805460ff19169055600c805460ff60a01b191690553480156200002857600080fd5b5060405162003262380380620032628339810160408190526200004b9162000370565b838360036200005b8382620004d2565b5060046200006a8282620004d2565b50506040805160a0810182526001600160a01b038816808252602082018890529181018690526060810185905260808101849052600680546001600160a01b031916909217825591506007620000c18782620004d2565b5060408201516002820190620000d89082620004d2565b5060608201516003820190620000ef9082620004d2565b50608091909101516004909101556200013387620001106012600a620006b3565b600a546200012190600590620006c8565b6200012d9190620006eb565b620001a1565b6200016585620001466012600a620006b3565b600a5460059062000159906004620006eb565b620001219190620006c8565b5050600b80546001600160a01b039687166001600160a01b031991821617909155600c805495909616941693909317909355506200071b915050565b6001600160a01b038216620001fc5760405162461bcd60e51b815260206004820152601f60248201527f45524332303a206d696e7420746f20746865207a65726f206164647265737300604482015260640160405180910390fd5b806002600082825462000210919062000705565b90915550506001600160a01b038216600090815260208190526040812080548392906200023f90849062000705565b90915550506040518181526001600160a01b038316906000907fddf252ad1be2c89b69c2b068fc378daa952ba7f163c4a11628f55a4df523b3ef9060200160405180910390a35050565b505050565b80516001600160a01b0381168114620002a657600080fd5b919050565b634e487b7160e01b600052604160045260246000fd5b600082601f830112620002d357600080fd5b81516001600160401b0380821115620002f057620002f0620002ab565b604051601f8301601f19908116603f011681019082821181831017156200031b576200031b620002ab565b816040528381526020925086838588010111156200033857600080fd5b600091505b838210156200035c57858201830151818301840152908201906200033d565b600093810190920192909252949350505050565b600080600080600080600060e0888a0312156200038c57600080fd5b62000397886200028e565b9650620003a7602089016200028e565b9550620003b7604089016200028e565b60608901519095506001600160401b0380821115620003d557600080fd5b620003e38b838c01620002c1565b955060808a0151915080821115620003fa57600080fd5b620004088b838c01620002c1565b945060a08a01519150808211156200041f57600080fd5b506200042e8a828b01620002c1565b92505060c0880151905092959891949750929550565b600181811c908216806200045957607f821691505b6020821081036200047a57634e487b7160e01b600052602260045260246000fd5b50919050565b601f8211156200028957600081815260208120601f850160051c81016020861015620004a95750805b601f850160051c820191505b81811015620004ca57828155600101620004b5565b505050505050565b81516001600160401b03811115620004ee57620004ee620002ab565b6200050681620004ff845462000444565b8462000480565b602080601f8311600181146200053e5760008415620005255750858301515b600019600386901b1c1916600185901b178555620004ca565b600085815260208120601f198616915b828110156200056f578886015182559484019460019091019084016200054e565b50858210156200058e5787850151600019600388901b60f8161c191681555b5050505050600190811b01905550565b634e487b7160e01b600052601160045260246000fd5b600181815b80851115620005f5578160001904821115620005d957620005d96200059e565b80851615620005e757918102915b93841c9390800290620005b9565b509250929050565b6000826200060e57506001620006ad565b816200061d57506000620006ad565b8160018114620006365760028114620006415762000661565b6001915050620006ad565b60ff8411156200065557620006556200059e565b50506001821b620006ad565b5060208310610133831016604e8410600b841016171562000686575081810a620006ad565b620006928383620005b4565b8060001904821115620006a957620006a96200059e565b0290505b92915050565b6000620006c18383620005fd565b9392505050565b600082620006e657634e487b7160e01b600052601260045260246000fd5b500490565b8082028115828204841417620006ad57620006ad6200059e565b80820180821115620006ad57620006ad6200059e565b612b37806200072b6000396000f3fe60806040523480156200001157600080fd5b5060043610620001695760003560e01c80637b27f91b11620000d3578063bfe4e27d1162000086578063bfe4e27d146200031d578063c040e6b81462000327578063d63dc6611462000344578063d7c06919146200034e578063db90cb2d1462000367578063dd62ed3e146200037157600080fd5b80637b27f91b14620002ad57806395d89b4114620002c6578063a457c2d714620002d0578063a9059cbb14620002e7578063b4e830f114620002fe578063bf2a0a5e146200030857600080fd5b8063313ce567116200012c578063313ce56714620001ff57806339509351146200020f578063431f21da1462000226578063481c6a75146200023d578063571a26a0146200026a57806370a08231146200028157600080fd5b806306fdde03146200016e578063095ea7b3146200019057806318160ddd14620001b857806323b872dd14620001cb5780632accd14414620001e2575b600080fd5b6200017862000388565b6040516200018791906200128b565b60405180910390f35b620001a7620001a1366004620012c0565b62000422565b604051901515815260200162000187565b6002545b60405190815260200162000187565b620001a7620001dc366004620012ef565b6200043e565b620001ec62000466565b6040516200018795949392919062001335565b6040516012815260200162000187565b620001a762000220366004620012c0565b62000641565b620001a76200023736600462001398565b62000669565b600c5462000251906001600160a01b031681565b6040516001600160a01b03909116815260200162000187565b620002516200027b366004620013cb565b62000892565b620001bc62000292366004620013e5565b6001600160a01b031660009081526020819052604090205490565b620002c4620002be366004620013e5565b620008bd565b005b6200017862000b67565b620001a7620002e1366004620012c0565b62000b78565b620001a7620002f8366004620012c0565b62000bf9565b620002c462000c09565b600c54620001a790600160a01b900460ff1681565b620002c462000c63565b600554620003359060ff1681565b6040516200018791906200141b565b620002c462000d2f565b6200035862000dad565b60405162000187919062001444565b620002c462000e10565b620001bc6200038236600462001493565b62000e8f565b6060600380546200039990620014d1565b80601f0160208091040260200160405190810160405280929190818152602001828054620003c790620014d1565b8015620004185780601f10620003ec5761010080835404028352916020019162000418565b820191906000526020600020905b815481529060010190602001808311620003fa57829003601f168201915b5050505050905090565b6000336200043281858562000eba565b60019150505b92915050565b6000336200044e85828562000fe2565b6200045b8585856200105d565b506001949350505050565b60068054600780546001600160a01b0390921692916200048690620014d1565b80601f0160208091040260200160405190810160405280929190818152602001828054620004b490620014d1565b8015620005055780601f10620004d95761010080835404028352916020019162000505565b820191906000526020600020905b815481529060010190602001808311620004e757829003601f168201915b5050505050908060020180546200051c90620014d1565b80601f01602080910402602001604051908101604052809291908181526020018280546200054a90620014d1565b80156200059b5780601f106200056f576101008083540402835291602001916200059b565b820191906000526020600020905b8154815290600101906020018083116200057d57829003601f168201915b505050505090806003018054620005b290620014d1565b80601f0160208091040260200160405190810160405280929190818152602001828054620005e090620014d1565b8015620006315780601f10620006055761010080835404028352916020019162000631565b820191906000526020600020905b8154815290600101906020018083116200061357829003601f168201915b5050505050908060040154905085565b6000336200043281858562000657838362000e8f565b6200066391906200150d565b62000eba565b60008060055460ff16600381111562000686576200068662001405565b14158015620006af5750600360055460ff166003811115620006ac57620006ac62001405565b14155b620006d75760405162461bcd60e51b8152600401620006ce906200152f565b60405180910390fd5b600160055460ff166003811115620006f357620006f362001405565b036200077057600c54600160a01b900460ff16620007435760405162461bcd60e51b815260206004820152600c60248201526b1393d517d054141493d5915160a21b6044820152606401620006ce565b6006546001600160a01b03163314620007705760405162461bcd60e51b8152600401620006ce9062001552565b336000908152602081905260409020548410620007c45760405162461bcd60e51b8152602060048201526011602482015270125394d551919250d251539517d1955391607a1b6044820152606401620006ce565b60003385858886604051620007d99062001235565b6001600160a01b039095168552602085019390935260408401919091526060830152608082015260a001604051809103906000f08015801562000820573d6000803e3d6000fd5b50600d80546001810182556000919091527fd7b6990105719101dabeb77144f2a3385c8033acd3af97e9423a695e81ad1eb50180546001600160a01b0319166001600160a01b0383811691909117909155600b549192506200088691339116876200105d565b50600195945050505050565b600d8181548110620008a357600080fd5b6000918252602090912001546001600160a01b0316905081565b6001600160a01b038116620009045760405162461bcd60e51b815260206004820152600c60248201526b12539053125117d25394155560a21b6044820152606401620006ce565b6000819050806001600160a01b03166338af3eed6040518163ffffffff1660e01b8152600401602060405180830381865afa15801562000948573d6000803e3d6000fd5b505050506040513d601f19601f820116820180604052508101906200096e919062001575565b6001600160a01b0316336001600160a01b031614620009b95760405162461bcd60e51b815260206004820152600660248201526511115392515160d21b6044820152606401620006ce565b806001600160a01b0316631a0de74c6040518163ffffffff1660e01b81526004016020604051808303816000875af1158015620009fa573d6000803e3d6000fd5b505050506040513d601f19601f8201168201806040525081019062000a209190620015ab565b50806001600160a01b0316631eb5ea2e6040518163ffffffff1660e01b8152600401600060405180830381600087803b15801562000a5d57600080fd5b505af115801562000a72573d6000803e3d6000fd5b505050506000816001600160a01b031663df15c37e6040518163ffffffff1660e01b8152600401600060405180830381865afa15801562000ab7573d6000803e3d6000fd5b505050506040513d6000823e601f3d908101601f1916820160405262000ae191908101906200163f565b905060005b815181101562000b6157600b54825162000b4c916001600160a01b03169084908490811062000b195762000b1962001743565b60200260200101516000015184848151811062000b3a5762000b3a62001743565b6020026020010151604001516200105d565b62000b596001826200150d565b905062000ae6565b50505050565b6060600480546200039990620014d1565b6000338162000b88828662000e8f565b90508381101562000bea5760405162461bcd60e51b815260206004820152602560248201527f45524332303a2064656372656173656420616c6c6f77616e63652062656c6f77604482015264207a65726f60d81b6064820152608401620006ce565b6200045b828686840362000eba565b600033620004328185856200105d565b600c546001600160a01b0316331462000c4e5760405162461bcd60e51b815260206004820152600660248201526511115392515160d21b6044820152606401620006ce565b600c805460ff60a01b1916600160a01b179055565b6006546001600160a01b0316331462000c905760405162461bcd60e51b8152600401620006ce9062001552565b60018060055460ff16600381111562000cad5762000cad62001405565b1462000ccd5760405162461bcd60e51b8152600401620006ce906200152f565b600c54600160a01b900460ff1662000d175760405162461bcd60e51b815260206004820152600c60248201526b1393d517d054141493d5915160a21b6044820152606401620006ce565b600580546002919060ff19166001835b021790555050565b6006546001600160a01b0316331462000d5c5760405162461bcd60e51b8152600401620006ce9062001552565b60008060055460ff16600381111562000d795762000d7962001405565b1462000d995760405162461bcd60e51b8152600401620006ce906200152f565b600580546001919060ff1916828062000d27565b6060600d8054806020026020016040519081016040528092919081815260200182805480156200041857602002820191906000526020600020905b81546001600160a01b0316815260019091019060200180831162000de8575050505050905090565b6006546001600160a01b0316331462000e3d5760405162461bcd60e51b8152600401620006ce9062001552565b60008060055460ff16600381111562000e5a5762000e5a62001405565b1462000e7a5760405162461bcd60e51b8152600401620006ce906200152f565b600580546003919060ff191660018362000d27565b6001600160a01b03918216600090815260016020908152604080832093909416825291909152205490565b6001600160a01b03831662000f1e5760405162461bcd60e51b8152602060048201526024808201527f45524332303a20617070726f76652066726f6d20746865207a65726f206164646044820152637265737360e01b6064820152608401620006ce565b6001600160a01b03821662000f815760405162461bcd60e51b815260206004820152602260248201527f45524332303a20617070726f766520746f20746865207a65726f206164647265604482015261737360f01b6064820152608401620006ce565b6001600160a01b0383811660008181526001602090815260408083209487168084529482529182902085905590518481527f8c5be1e5ebec7d5bd14f71427d1e84f3dd0314c0f7b2291e5b200ac8c7c3b925910160405180910390a3505050565b600062000ff0848462000e8f565b9050600019811462000b6157818110156200104e5760405162461bcd60e51b815260206004820152601d60248201527f45524332303a20696e73756666696369656e7420616c6c6f77616e63650000006044820152606401620006ce565b62000b61848484840362000eba565b6001600160a01b038316620010c35760405162461bcd60e51b815260206004820152602560248201527f45524332303a207472616e736665722066726f6d20746865207a65726f206164604482015264647265737360d81b6064820152608401620006ce565b6001600160a01b038216620011275760405162461bcd60e51b815260206004820152602360248201527f45524332303a207472616e7366657220746f20746865207a65726f206164647260448201526265737360e81b6064820152608401620006ce565b6001600160a01b03831660009081526020819052604090205481811015620011a15760405162461bcd60e51b815260206004820152602660248201527f45524332303a207472616e7366657220616d6f756e7420657863656564732062604482015265616c616e636560d01b6064820152608401620006ce565b6001600160a01b03808516600090815260208190526040808220858503905591851681529081208054849290620011da9084906200150d565b92505081905550826001600160a01b0316846001600160a01b03167fddf252ad1be2c89b69c2b068fc378daa952ba7f163c4a11628f55a4df523b3ef846040516200122791815260200190565b60405180910390a362000b61565b6113a8806200175a83390190565b6000815180845260005b818110156200126b576020818501810151868301820152016200124d565b506000602082860101526020601f19601f83011685010191505092915050565b602081526000620012a0602083018462001243565b9392505050565b6001600160a01b0381168114620012bd57600080fd5b50565b60008060408385031215620012d457600080fd5b8235620012e181620012a7565b946020939093013593505050565b6000806000606084860312156200130557600080fd5b83356200131281620012a7565b925060208401356200132481620012a7565b929592945050506040919091013590565b6001600160a01b038616815260a0602082018190526000906200135b9083018762001243565b82810360408401526200136f818762001243565b9050828103606084015262001385818662001243565b9150508260808301529695505050505050565b60008060008060808587031215620013af57600080fd5b5050823594602084013594506040840135936060013592509050565b600060208284031215620013de57600080fd5b5035919050565b600060208284031215620013f857600080fd5b8135620012a081620012a7565b634e487b7160e01b600052602160045260246000fd5b60208101600483106200143e57634e487b7160e01b600052602160045260246000fd5b91905290565b6020808252825182820181905260009190848201906040850190845b81811015620014875783516001600160a01b03168352928401929184019160010162001460565b50909695505050505050565b60008060408385031215620014a757600080fd5b8235620014b481620012a7565b91506020830135620014c681620012a7565b809150509250929050565b600181811c90821680620014e657607f821691505b6020821081036200150757634e487b7160e01b600052602260045260246000fd5b50919050565b808201808211156200043857634e487b7160e01b600052601160045260246000fd5b60208082526009908201526829aa20a3a2afa2a92960b91b604082015260600190565b60208082526009908201526827afa327aaa72222a960b91b604082015260600190565b6000602082840312156200158857600080fd5b8151620012a081620012a7565b80518015158114620015a657600080fd5b919050565b600060208284031215620015be57600080fd5b620012a08262001595565b634e487b7160e01b600052604160045260246000fd5b6040516080810167ffffffffffffffff81118282101715620016055762001605620015c9565b60405290565b604051601f8201601f1916810167ffffffffffffffff81118282101715620016375762001637620015c9565b604052919050565b600060208083850312156200165357600080fd5b825167ffffffffffffffff808211156200166c57600080fd5b818501915085601f8301126200168157600080fd5b815181811115620016965762001696620015c9565b620016a6848260051b016200160b565b818152848101925060079190911b830184019087821115620016c757600080fd5b928401925b81841015620017385760808489031215620016e75760008081fd5b620016f1620015df565b8451620016fe81620012a7565b815284860151868201526040808601519082015260606200172181870162001595565b9082015283526080939093019291840191620016cc565b979650505050505050565b634e487b7160e01b600052603260045260246000fdfe608060405234801561001057600080fd5b506040516113a83803806113a883398101604081905261002f91610082565b600080546001600160a01b0319166001600160a01b03871617905561005481426100d7565b60028190556100649083906100d7565b6001555050600391909155600455506008805460ff191690556100fe565b600080600080600060a0868803121561009a57600080fd5b85516001600160a01b03811681146100b157600080fd5b602087015160408801516060890151608090990151929a91995097965090945092505050565b808201808211156100f857634e487b7160e01b600052601160045260246000fd5b92915050565b61129b8061010d6000396000f3fe6080604052600436106100e85760003560e01c806343129de11161008a578063c19d93fb11610059578063c19d93fb14610213578063d2ef33831461023a578063df15c37e14610250578063ea8a1af01461027257600080fd5b806343129de1146101c1578063454a2ab3146101d457806378e97925146101e7578063bb349243146101fd57600080fd5b80631d8557d7116100c65780631d8557d7146101475780631eb5ea2e1461015e5780633197cbb61461017357806338af3eed1461018957600080fd5b806312065fe0146100ed578063188ec3561461010f5780631a0de74c14610122575b600080fd5b3480156100f957600080fd5b50475b6040519081526020015b60405180910390f35b34801561011b57600080fd5b50426100fc565b34801561012e57600080fd5b50610137610287565b6040519015158152602001610106565b34801561015357600080fd5b5061015c6105d3565b005b34801561016a57600080fd5b5061015c610662565b34801561017f57600080fd5b506100fc60015481565b34801561019557600080fd5b506000546101a9906001600160a01b031681565b6040516001600160a01b039091168152602001610106565b61015c6101cf3660046110eb565b610782565b61015c6101e23660046110eb565b610a58565b3480156101f357600080fd5b506100fc60025481565b34801561020957600080fd5b506100fc60045481565b34801561021f57600080fd5b5060085461022d9060ff1681565b604051610106919061111a565b34801561024657600080fd5b506100fc60035481565b34801561025c57600080fd5b50610265610cdb565b6040516101069190611142565b34801561027e57600080fd5b50610137610d6a565b60006102916105d3565b600460085460ff1660048111156102aa576102aa611104565b146102d05760405162461bcd60e51b81526004016102c7906111b1565b60405180910390fd5b600654156102dd57600080fd5b60035460005b6005546102f2906001906111ea565b8110156105ca576000610303610dbd565b80519091506001600160a01b0316158061031b575082155b1561032657506105ca565b80604001518310610468576006805460018101825560009190915281517ff652222313e28459528d920b65115c16c04f3efc82aaedc97be59f3f377c0d3f600490920291820180546001600160a01b0319166001600160a01b0390921691909117905560208201517ff652222313e28459528d920b65115c16c04f3efc82aaedc97be59f3f377c0d4082015560408201517ff652222313e28459528d920b65115c16c04f3efc82aaedc97be59f3f377c0d41820181905560608301517ff652222313e28459528d920b65115c16c04f3efc82aaedc97be59f3f377c0d42909201805460ff19169215159290921790915561042090846111ea565b81516001600160a01b0316600090815260076020526040812080546001600160a01b0319168155600181018290556002810191909155600301805460ff1916905592506105b7565b60008160400151826020015161047e9190611203565b9050600084836040015161049291906111ea565b6040840186905290506104a58286611225565b6020840190815260068054600181018255600091825285517ff652222313e28459528d920b65115c16c04f3efc82aaedc97be59f3f377c0d3f600490920291820180546001600160a01b0319166001600160a01b0390921691909117905591517ff652222313e28459528d920b65115c16c04f3efc82aaedc97be59f3f377c0d4083015560408501517ff652222313e28459528d920b65115c16c04f3efc82aaedc97be59f3f377c0d4183015560608501517ff652222313e28459528d920b65115c16c04f3efc82aaedc97be59f3f377c0d42909201805460ff19169215159290921790915594506105978282611225565b83516001600160a01b031660009081526007602052604090206001015550505b506105c360018261123c565b90506102e3565b50600191505090565b600060085460ff1660048111156105ec576105ec611104565b1480156105fa575060025442115b1561060d576008805460ff191660011790555b600160085460ff16600481111561062657610626611104565b148015610634575060015442115b1561066057600554600003610652576008805460ff19166003179055565b6008805460ff191660041790555b565b60065461066e57600080fd5b60005b600554610680906001906111ea565b8110156107795760006001600160a01b031660076000600584815481106106a9576106a961124f565b60009182526020808320909101546001600160a01b03908116845290830193909352604090910190205416146107675761076760076000600584815481106106f3576106f361124f565b60009182526020808320909101546001600160a01b039081168452908301939093526040909101812054600580549190931692600792918690811061073a5761073a61124f565b60009182526020808320909101546001600160a01b03168352820192909252604001902060010154610fbe565b61077260018261123c565b9050610671565b50610660611055565b6001544211156107c45760405162461bcd60e51b815260206004820152600d60248201526c22a72222a22fa0aaa1aa24a7a760991b60448201526064016102c7565b60025442101561080c5760405162461bcd60e51b81526020600482015260136024820152722727aa2fa9aa20a92a22a22fa0aaa1aa24a7a760691b60448201526064016102c7565b6108146105d3565b600160085460ff16600481111561082d5761082d611104565b1461084a5760405162461bcd60e51b81526004016102c7906111b1565b336000908152600760205260409020546001600160a01b0316156108995760405162461bcd60e51b81526020600482015260066024820152651393d7d0925160d21b60448201526064016102c7565b33600090815260076020908152604091829020825160808101845281546001600160a01b0316815260018201549281018390526002820154938101939093526003015460ff16151560608301526004549083906108f6903461123c565b6109009190611203565b10156109385760405162461bcd60e51b81526020600482015260076024820152661313d5d7d0925160ca1b60448201526064016102c7565b6040518060800160405280336001600160a01b03168152602001826020015134610962919061123c565b81526020808201859052606084810151151560409384015233600090815260078352839020845181546001600160a01b0319166001600160a01b039091161781559184015160018084019190915592840151600283015592909201516003909201805460ff19169215159290921790915554610384906109e39042906111ea565b10156109f9576109f54261038461123c565b6001555b7fdffd058a45e9d14132d2ab9933acf1ffaf0aa7447b7bda38d204549399b25e4a33826020015134610a2b919061123c565b604080516001600160a01b0390931683526020830191909152810184905260600160405180910390a15050565b600154421115610a9a5760405162461bcd60e51b815260206004820152600d60248201526c22a72222a22fa0aaa1aa24a7a760991b60448201526064016102c7565b600254421015610ae25760405162461bcd60e51b81526020600482015260136024820152722727aa2fa9aa20a92a22a22fa0aaa1aa24a7a760691b60448201526064016102c7565b610aea6105d3565b600160085460ff166004811115610b0357610b03611104565b14610b205760405162461bcd60e51b81526004016102c7906111b1565b600454610b2d8234611203565b1015610b655760405162461bcd60e51b81526020600482015260076024820152661313d5d7d0925160ca1b60448201526064016102c7565b336000908152600760205260409020546001600160a01b0316610c36576005805460018082019092557f036b6384b5eca791c62761152d0c79bb0604c104a5fb6f4eb0703f3154bb3db0018054336001600160a01b03199182168117909255604080516080810182528381523460208083019182528284018881526000606085018181529781526007909252939020915182549094166001600160a01b0390941693909317815591519382019390935591516002830155516003909101805460ff1916911515919091179055610c71565b60405162461bcd60e51b815260206004820152601060248201526f222aa82624a1a0aa22afa124a22222a960811b60448201526064016102c7565b61038442600154610c8291906111ea565b1015610c9857610c944261038461123c565b6001555b604080513381523460208201529081018290527f28dc9f4ca742fb1574a6514ee7d82c0858b4afb625026365ac3d8cfceb14f7889060600160405180910390a150565b60606006805480602002602001604051908101604052809291908181526020016000905b82821015610d61576000848152602090819020604080516080810182526004860290920180546001600160a01b03168352600180820154848601526002820154928401929092526003015460ff16151560608301529083529092019101610cff565b50505050905090565b6000610d746105d3565b600060085460ff166004811115610d8d57610d8d611104565b14610daa5760405162461bcd60e51b81526004016102c7906111b1565b506008805460ff19166003179055600190565b6040805160808101825260008082526020820181905291810182905260608101919091526040805160808101825260008082526020820181905260019282019290925260608101829052905b600554610e18906001906111ea565b811015610fb85760006001600160a01b03166007600060058481548110610e4157610e4161124f565b60009182526020808320909101546001600160a01b0390811684529083019390935260409091019020541614610fa65781604001518260200151610e859190611203565b6007600060058481548110610e9c57610e9c61124f565b9060005260206000200160009054906101000a90046001600160a01b03166001600160a01b03166001600160a01b03168152602001908152602001600020600201546007600060058581548110610ef557610ef561124f565b60009182526020808320909101546001600160a01b03168352820192909252604001902060010154610f279190611203565b1115610fa6576007600060058381548110610f4457610f4461124f565b60009182526020808320909101546001600160a01b0390811684528382019490945260409283019091208251608081018452815490941684526001810154918401919091526002810154918301919091526003015460ff161515606082015291505b610fb160018261123c565b9050610e09565b50919050565b6000826001600160a01b03168260405160006040518083038185875af1925050503d806000811461100b576040519150601f19603f3d011682016040523d82523d6000602084013e611010565b606091505b50509050806110505760405162461bcd60e51b815260206004820152600c60248201526b2a2920a729a322a92fa2a92960a11b60448201526064016102c7565b505050565b600080546040514792916001600160a01b03169083908381818185875af1925050503d80600081146110a3576040519150601f19603f3d011682016040523d82523d6000602084013e6110a8565b606091505b50509050806110e75760405162461bcd60e51b815260206004820152600b60248201526a2ba4aa242920abafa2a92960a91b60448201526064016102c7565b5050565b6000602082840312156110fd57600080fd5b5035919050565b634e487b7160e01b600052602160045260246000fd5b602081016005831061113c57634e487b7160e01b600052602160045260246000fd5b91905290565b602080825282518282018190526000919060409081850190868401855b828110156111a457815180516001600160a01b03168552868101518786015285810151868601526060908101511515908501526080909301929085019060010161115f565b5091979650505050505050565b60208082526009908201526829aa20aa22afa2a92960b91b604082015260600190565b634e487b7160e01b600052601160045260246000fd5b818103818111156111fd576111fd6111d4565b92915050565b60008261122057634e487b7160e01b600052601260045260246000fd5b500490565b80820281158282048414176111fd576111fd6111d4565b808201808211156111fd576111fd6111d4565b634e487b7160e01b600052603260045260246000fdfea26469706673582212201469ac208282b33661642b32a6b9f79b4d0d76268d63c99d1ab86a8546f3d28864736f6c63430008110033a264697066735822122075217e75a6c37bd1bb2c3e7d6fb863ab13d3fb04597f4d64101a1d68bb21f0be64736f6c63430008110033",
    "sourcePath": "/home/erfanfi79/Projects/smart-contract/src/contracts/Project.sol",
    "compiler": {
        "name": "solc",
        "version": "0.8.17+commit.8df45f5f"
    },
    "functionHashes": {
        "allowance(address,address)": "dd62ed3e",
        "approve(address,uint256)": "095ea7b3",
        "approveProject()": "b4e830f1",
        "auctions(uint256)": "571a26a0",
        "balanceOf(address)": "70a08231",
        "calcAuctionResult(address)": "7b27f91b",
        "canelProject()": "db90cb2d",
        "createAuction(uint256,uint256,uint256,uint256)": "431f21da",
        "decimals()": "313ce567",
        "decreaseAllowance(address,uint256)": "a457c2d7",
        "fundProject()": "d63dc661",
        "getAuctions()": "d7c06919",
        "increaseAllowance(address,uint256)": "39509351",
        "isApprovedForCrowdFund()": "bf2a0a5e",
        "manager()": "481c6a75",
        "name()": "06fdde03",
        "projectDetails()": "2accd144",
        "releaseProject()": "bfe4e27d",
        "stage()": "c040e6b8",
        "symbol()": "95d89b41",
        "totalSupply()": "18160ddd",
        "transfer(address,uint256)": "a9059cbb",
        "transferFrom(address,address,uint256)": "23b872dd"
    },
    "gasEstimates": {
        "creation": {
            "codeDepositCost": "2212600",
            "executionCost": "infinite",
            "totalCost": "infinite"
        },
        "external": {
            "allowance(address,address)": "infinite",
            "approve(address,uint256)": "24645",
            "approveProject()": "26631",
            "auctions(uint256)": "4725",
            "balanceOf(address)": "2667",
            "calcAuctionResult(address)": "infinite",
            "canelProject()": "28809",
            "createAuction(uint256,uint256,uint256,uint256)": "infinite",
            "decimals()": "200",
            "decreaseAllowance(address,uint256)": "27011",
            "fundProject()": "28765",
            "getAuctions()": "infinite",
            "increaseAllowance(address,uint256)": "infinite",
            "isApprovedForCrowdFund()": "2460",
            "manager()": "2426",
            "name()": "infinite",
            "projectDetails()": "infinite",
            "releaseProject()": "30850",
            "stage()": "2395",
            "symbol()": "infinite",
            "totalSupply()": "2349",
            "transfer(address,uint256)": "infinite",
            "transferFrom(address,address,uint256)": "infinite"
        }
    }
}