{
    "contractName": "SharifStarter",
    "abi": [
        {
            "inputs": [],
            "stateMutability": "nonpayable",
            "type": "constructor"
        },
        {
            "anonymous": false,
            "inputs": [
                {
                    "indexed": true,
                    "internalType": "address",
                    "name": "owner",
                    "type": "address"
                },
                {
                    "indexed": true,
                    "internalType": "address",
                    "name": "spender",
                    "type": "address"
                },
                {
                    "indexed": false,
                    "internalType": "uint256",
                    "name": "value",
                    "type": "uint256"
                }
            ],
            "name": "Approval",
            "type": "event"
        },
        {
            "anonymous": false,
            "inputs": [
                {
                    "indexed": false,
                    "internalType": "address",
                    "name": "contractAddress",
                    "type": "address"
                },
                {
                    "indexed": false,
                    "internalType": "address",
                    "name": "projectStarter",
                    "type": "address"
                },
                {
                    "indexed": false,
                    "internalType": "string",
                    "name": "name",
                    "type": "string"
                },
                {
                    "indexed": false,
                    "internalType": "string",
                    "name": "symbol",
                    "type": "string"
                },
                {
                    "indexed": false,
                    "internalType": "string",
                    "name": "description",
                    "type": "string"
                },
                {
                    "indexed": false,
                    "internalType": "uint256",
                    "name": "totalSupply",
                    "type": "uint256"
                }
            ],
            "name": "ProjectCreated",
            "type": "event"
        },
        {
            "anonymous": false,
            "inputs": [
                {
                    "indexed": true,
                    "internalType": "address",
                    "name": "from",
                    "type": "address"
                },
                {
                    "indexed": true,
                    "internalType": "address",
                    "name": "to",
                    "type": "address"
                },
                {
                    "indexed": false,
                    "internalType": "uint256",
                    "name": "value",
                    "type": "uint256"
                }
            ],
            "name": "Transfer",
            "type": "event"
        },
        {
            "inputs": [
                {
                    "internalType": "address",
                    "name": "owner",
                    "type": "address"
                },
                {
                    "internalType": "address",
                    "name": "spender",
                    "type": "address"
                }
            ],
            "name": "allowance",
            "outputs": [
                {
                    "internalType": "uint256",
                    "name": "",
                    "type": "uint256"
                }
            ],
            "stateMutability": "view",
            "type": "function"
        },
        {
            "inputs": [
                {
                    "internalType": "address",
                    "name": "spender",
                    "type": "address"
                },
                {
                    "internalType": "uint256",
                    "name": "amount",
                    "type": "uint256"
                }
            ],
            "name": "approve",
            "outputs": [
                {
                    "internalType": "bool",
                    "name": "",
                    "type": "bool"
                }
            ],
            "stateMutability": "nonpayable",
            "type": "function"
        },
        {
            "inputs": [
                {
                    "internalType": "contract Project",
                    "name": "project",
                    "type": "address"
                }
            ],
            "name": "approveProject",
            "outputs": [
                {
                    "internalType": "bool",
                    "name": "",
                    "type": "bool"
                }
            ],
            "stateMutability": "nonpayable",
            "type": "function"
        },
        {
            "inputs": [
                {
                    "internalType": "address",
                    "name": "account",
                    "type": "address"
                }
            ],
            "name": "balanceOf",
            "outputs": [
                {
                    "internalType": "uint256",
                    "name": "",
                    "type": "uint256"
                }
            ],
            "stateMutability": "view",
            "type": "function"
        },
        {
            "inputs": [
                {
                    "internalType": "address",
                    "name": "sharifstarter",
                    "type": "address"
                },
                {
                    "internalType": "string",
                    "name": "name",
                    "type": "string"
                },
                {
                    "internalType": "string",
                    "name": "symbol",
                    "type": "string"
                },
                {
                    "internalType": "string",
                    "name": "description",
                    "type": "string"
                },
                {
                    "internalType": "uint256",
                    "name": "totalSupply",
                    "type": "uint256"
                }
            ],
            "name": "createProject",
            "outputs": [],
            "stateMutability": "nonpayable",
            "type": "function"
        },
        {
            "inputs": [],
            "name": "decimals",
            "outputs": [
                {
                    "internalType": "uint8",
                    "name": "",
                    "type": "uint8"
                }
            ],
            "stateMutability": "view",
            "type": "function"
        },
        {
            "inputs": [
                {
                    "internalType": "address",
                    "name": "spender",
                    "type": "address"
                },
                {
                    "internalType": "uint256",
                    "name": "subtractedValue",
                    "type": "uint256"
                }
            ],
            "name": "decreaseAllowance",
            "outputs": [
                {
                    "internalType": "bool",
                    "name": "",
                    "type": "bool"
                }
            ],
            "stateMutability": "nonpayable",
            "type": "function"
        },
        {
            "inputs": [
                {
                    "internalType": "string",
                    "name": "symbol",
                    "type": "string"
                }
            ],
            "name": "getProjectBySymbol",
            "outputs": [
                {
                    "internalType": "contract Project",
                    "name": "",
                    "type": "address"
                }
            ],
            "stateMutability": "view",
            "type": "function"
        },
        {
            "inputs": [],
            "name": "getProjects",
            "outputs": [
                {
                    "internalType": "contract Project[]",
                    "name": "",
                    "type": "address[]"
                }
            ],
            "stateMutability": "view",
            "type": "function"
        },
        {
            "inputs": [
                {
                    "internalType": "address",
                    "name": "spender",
                    "type": "address"
                },
                {
                    "internalType": "uint256",
                    "name": "addedValue",
                    "type": "uint256"
                }
            ],
            "name": "increaseAllowance",
            "outputs": [
                {
                    "internalType": "bool",
                    "name": "",
                    "type": "bool"
                }
            ],
            "stateMutability": "nonpayable",
            "type": "function"
        },
        {
            "inputs": [],
            "name": "name",
            "outputs": [
                {
                    "internalType": "string",
                    "name": "",
                    "type": "string"
                }
            ],
            "stateMutability": "view",
            "type": "function"
        },
        {
            "inputs": [],
            "name": "symbol",
            "outputs": [
                {
                    "internalType": "string",
                    "name": "",
                    "type": "string"
                }
            ],
            "stateMutability": "view",
            "type": "function"
        },
        {
            "inputs": [],
            "name": "totalSupply",
            "outputs": [
                {
                    "internalType": "uint256",
                    "name": "",
                    "type": "uint256"
                }
            ],
            "stateMutability": "view",
            "type": "function"
        },
        {
            "inputs": [
                {
                    "internalType": "address",
                    "name": "to",
                    "type": "address"
                },
                {
                    "internalType": "uint256",
                    "name": "amount",
                    "type": "uint256"
                }
            ],
            "name": "transfer",
            "outputs": [
                {
                    "internalType": "bool",
                    "name": "",
                    "type": "bool"
                }
            ],
            "stateMutability": "nonpayable",
            "type": "function"
        },
        {
            "inputs": [
                {
                    "internalType": "address",
                    "name": "from",
                    "type": "address"
                },
                {
                    "internalType": "address",
                    "name": "to",
                    "type": "address"
                },
                {
                    "internalType": "uint256",
                    "name": "amount",
                    "type": "uint256"
                }
            ],
            "name": "transferFrom",
            "outputs": [
                {
                    "internalType": "bool",
                    "name": "",
                    "type": "bool"
                }
            ],
            "stateMutability": "nonpayable",
            "type": "function"
        }
    ],
    "bytecode": "60806040523480156200001157600080fd5b506040518060400160405280600d81526020016c29b430b934b329ba30b93a32b960991b8152506040518060400160405280600381526020016253485360e81b81525081600390816200006591906200022a565b5060046200007482826200022a565b505050620000933369021e19e0c9bab24000006200009960201b60201c565b6200031e565b6001600160a01b038216620000f45760405162461bcd60e51b815260206004820152601f60248201527f45524332303a206d696e7420746f20746865207a65726f206164647265737300604482015260640160405180910390fd5b8060026000828254620001089190620002f6565b90915550506001600160a01b0382166000908152602081905260408120805483929062000137908490620002f6565b90915550506040518181526001600160a01b038316906000907fddf252ad1be2c89b69c2b068fc378daa952ba7f163c4a11628f55a4df523b3ef9060200160405180910390a35050565b505050565b634e487b7160e01b600052604160045260246000fd5b600181811c90821680620001b157607f821691505b602082108103620001d257634e487b7160e01b600052602260045260246000fd5b50919050565b601f8211156200018157600081815260208120601f850160051c81016020861015620002015750805b601f850160051c820191505b8181101562000222578281556001016200020d565b505050505050565b81516001600160401b0381111562000246576200024662000186565b6200025e816200025784546200019c565b84620001d8565b602080601f8311600181146200029657600084156200027d5750858301515b600019600386901b1c1916600185901b17855562000222565b600085815260208120601f198616915b82811015620002c757888601518255948401946001909101908401620002a6565b5085821015620002e65787850151600019600388901b60f8161c191681555b5050505050600190811b01905550565b808201808211156200031857634e487b7160e01b600052601160045260246000fd5b92915050565b612fd3806200032e6000396000f3fe60806040523480156200001157600080fd5b5060043610620001095760003560e01c80634d7eb2f311620000a3578063a9059cbb116200006e578063a9059cbb146200023f578063be2617521462000256578063dcc60128146200026d578063dd62ed3e146200028657600080fd5b80634d7eb2f314620001c257806370a0823114620001f257806395d89b41146200021e578063a457c2d7146200022857600080fd5b806318160ddd11620000e457806318160ddd146200017157806323b872dd1462000184578063313ce567146200019b5780633950935114620001ab57600080fd5b806306fdde03146200010e578063095ea7b3146200013057806310e30f211462000158575b600080fd5b620001186200029d565b60405162000127919062000bcb565b60405180910390f35b620001476200014136600462000c19565b62000337565b604051901515815260200162000127565b6200016f6200016936600462000c94565b62000353565b005b6002545b60405190815260200162000127565b620001476200019536600462000d54565b620005b2565b6040516012815260200162000127565b62000147620001bc36600462000c19565b620005da565b620001d9620001d336600462000db0565b62000602565b6040516001600160a01b03909116815260200162000127565b620001756200020336600462000e6b565b6001600160a01b031660009081526020819052604090205490565b6200011862000635565b620001476200023936600462000c19565b62000646565b620001476200025036600462000c19565b620006c7565b620001476200026736600462000e6b565b620006d7565b6200027762000736565b60405162000127919062000e92565b620001756200029736600462000ee1565b62000799565b606060038054620002ae9062000f1f565b80601f0160208091040260200160405190810160405280929190818152602001828054620002dc9062000f1f565b80156200032d5780601f1062000301576101008083540402835291602001916200032d565b820191906000526020600020905b8154815290600101906020018083116200030f57829003601f168201915b5050505050905090565b60003362000347818585620007c4565b60019150505b92915050565b620003cb8888888080601f01602080910402602001604051908101604052809392919081815260200183838082843760009201919091525050604080516020601f8c018190048102820181019092528a815292508a9150899081908401838280828437600092019190915250879250620008ec915050565b6200040d5760405162461bcd60e51b815260206004820152600d60248201526c1253959053125117d253941555609a1b60448201526064015b60405180910390fd5b60006001600160a01b0316600686866040516200042c92919062000f5b565b908152604051908190036020019020546001600160a01b031614620004805760405162461bcd60e51b81526020600482015260096024820152684455504c494341544560b81b604482015260640162000404565b6000883389898989898989604051620004999062000b97565b620004ad9998979695949392919062000f94565b604051809103906000f080158015620004ca573d6000803e3d6000fd5b50600580546001810182556000919091527f036b6384b5eca791c62761152d0c79bb0604c104a5fb6f4eb0703f3154bb3db00180546001600160a01b0319166001600160a01b038316179055604051909150819060069062000530908990899062000f5b565b90815260405190819003602001812080546001600160a01b03939093166001600160a01b0319909316929092179091557fff5e40c738434f08f612af6937535108b923f8bace30d72f58b33e51814b09d7906200059f90839033908c908c908c908c908c908c908c9062000f94565b60405180910390a1505050505050505050565b600033620005c28582856200093e565b620005cf858585620009bf565b506001949350505050565b60003362000347818585620005f0838362000799565b620005fc919062001006565b620007c4565b600060068260405162000616919062001028565b908152604051908190036020019020546001600160a01b031692915050565b606060048054620002ae9062000f1f565b6000338162000656828662000799565b905083811015620006b85760405162461bcd60e51b815260206004820152602560248201527f45524332303a2064656372656173656420616c6c6f77616e63652062656c6f77604482015264207a65726f60d81b606482015260840162000404565b620005cf8286868403620007c4565b60003362000347818585620009bf565b6000816001600160a01b031663b4e830f16040518163ffffffff1660e01b8152600401600060405180830381600087803b1580156200071557600080fd5b505af11580156200072a573d6000803e3d6000fd5b50600195945050505050565b606060058054806020026020016040519081016040528092919081815260200182805480156200032d57602002820191906000526020600020905b81546001600160a01b0316815260019091019060200180831162000771575050505050905090565b6001600160a01b03918216600090815260016020908152604080832093909416825291909152205490565b6001600160a01b038316620008285760405162461bcd60e51b8152602060048201526024808201527f45524332303a20617070726f76652066726f6d20746865207a65726f206164646044820152637265737360e01b606482015260840162000404565b6001600160a01b0382166200088b5760405162461bcd60e51b815260206004820152602260248201527f45524332303a20617070726f766520746f20746865207a65726f206164647265604482015261737360f01b606482015260840162000404565b6001600160a01b0383811660008181526001602090815260408083209487168084529482529182902085905590518481527f8c5be1e5ebec7d5bd14f71427d1e84f3dd0314c0f7b2291e5b200ac8c7c3b925910160405180910390a3505050565b60006001600160a01b0385161580159062000908575060008451115b801562000916575060008351115b8015620009235750600082115b15620009325750600162000936565b5060005b949350505050565b60006200094c848462000799565b90506000198114620009b95781811015620009aa5760405162461bcd60e51b815260206004820152601d60248201527f45524332303a20696e73756666696369656e7420616c6c6f77616e6365000000604482015260640162000404565b620009b98484848403620007c4565b50505050565b6001600160a01b03831662000a255760405162461bcd60e51b815260206004820152602560248201527f45524332303a207472616e736665722066726f6d20746865207a65726f206164604482015264647265737360d81b606482015260840162000404565b6001600160a01b03821662000a895760405162461bcd60e51b815260206004820152602360248201527f45524332303a207472616e7366657220746f20746865207a65726f206164647260448201526265737360e81b606482015260840162000404565b6001600160a01b0383166000908152602081905260409020548181101562000b035760405162461bcd60e51b815260206004820152602660248201527f45524332303a207472616e7366657220616d6f756e7420657863656564732062604482015265616c616e636560d01b606482015260840162000404565b6001600160a01b0380851660009081526020819052604080822085850390559185168152908120805484929062000b3c90849062001006565b92505081905550826001600160a01b0316846001600160a01b03167fddf252ad1be2c89b69c2b068fc378daa952ba7f163c4a11628f55a4df523b3ef8460405162000b8991815260200190565b60405180910390a3620009b9565b611f57806200104783390190565b60005b8381101562000bc257818101518382015260200162000ba8565b50506000910152565b602081526000825180602084015262000bec81604085016020870162000ba5565b601f01601f19169190910160400192915050565b6001600160a01b038116811462000c1657600080fd5b50565b6000806040838503121562000c2d57600080fd5b823562000c3a8162000c00565b946020939093013593505050565b60008083601f84011262000c5b57600080fd5b50813567ffffffffffffffff81111562000c7457600080fd5b60208301915083602082850101111562000c8d57600080fd5b9250929050565b60008060008060008060008060a0898b03121562000cb157600080fd5b883562000cbe8162000c00565b9750602089013567ffffffffffffffff8082111562000cdc57600080fd5b62000cea8c838d0162000c48565b909950975060408b013591508082111562000d0457600080fd5b62000d128c838d0162000c48565b909750955060608b013591508082111562000d2c57600080fd5b5062000d3b8b828c0162000c48565b999c989b50969995989497949560800135949350505050565b60008060006060848603121562000d6a57600080fd5b833562000d778162000c00565b9250602084013562000d898162000c00565b929592945050506040919091013590565b634e487b7160e01b600052604160045260246000fd5b60006020828403121562000dc357600080fd5b813567ffffffffffffffff8082111562000ddc57600080fd5b818401915084601f83011262000df157600080fd5b81358181111562000e065762000e0662000d9a565b604051601f8201601f19908116603f0116810190838211818310171562000e315762000e3162000d9a565b8160405282815287602084870101111562000e4b57600080fd5b826020860160208301376000928101602001929092525095945050505050565b60006020828403121562000e7e57600080fd5b813562000e8b8162000c00565b9392505050565b6020808252825182820181905260009190848201906040850190845b8181101562000ed55783516001600160a01b03168352928401929184019160010162000eae565b50909695505050505050565b6000806040838503121562000ef557600080fd5b823562000f028162000c00565b9150602083013562000f148162000c00565b809150509250929050565b600181811c9082168062000f3457607f821691505b60208210810362000f5557634e487b7160e01b600052602260045260246000fd5b50919050565b8183823760009101908152919050565b81835281816020850137506000828201602090810191909152601f909101601f19169091010190565b6001600160a01b038a811682528916602082015260c06040820181905260009062000fc3908301898b62000f6b565b828103606084015262000fd881888a62000f6b565b9050828103608084015262000fef81868862000f6b565b9150508260a08301529a9950505050505050505050565b808201808211156200034d57634e487b7160e01b600052601160045260246000fd5b600082516200103c81846020870162000ba5565b919091019291505056fe60806040526005805460ff19908116909155600b805490911690553480156200002757600080fd5b5060405162001f5738038062001f578339810160408190526200004a91620003b3565b838360036200005a838262000501565b50600462000069828262000501565b50506040805160a0810182526001600160a01b038816808252602082018890529181018690526060810185905260808101849052600680546001600160a01b031916909217825591506007620000c0878262000501565b5060408201516002820190620000d7908262000501565b5060608201516003820190620000ee908262000501565b506080919091015160049091015562000132866200010f6012600a620006e2565b600a546200012090600590620006f7565b6200012c91906200071a565b620001e4565b6200016485620001456012600a620006e2565b600a54600590620001589060046200071a565b620001209190620006f7565b5050600c80546001818101835560008390527fdf6966c971051c3d54ec59162606531493a51404a002842f56009d7e5cf4a8c791820180546001600160a01b039889166001600160a01b0319918216811790925584549283019094559101805495909616948216949094179094555050600d80549092161790556200074a565b6001600160a01b0382166200023f5760405162461bcd60e51b815260206004820152601f60248201527f45524332303a206d696e7420746f20746865207a65726f206164647265737300604482015260640160405180910390fd5b806002600082825462000253919062000734565b90915550506001600160a01b038216600090815260208190526040812080548392906200028290849062000734565b90915550506040518181526001600160a01b038316906000907fddf252ad1be2c89b69c2b068fc378daa952ba7f163c4a11628f55a4df523b3ef9060200160405180910390a35050565b505050565b80516001600160a01b0381168114620002e957600080fd5b919050565b634e487b7160e01b600052604160045260246000fd5b600082601f8301126200031657600080fd5b81516001600160401b0380821115620003335762000333620002ee565b604051601f8301601f19908116603f011681019082821181831017156200035e576200035e620002ee565b816040528381526020925086838588010111156200037b57600080fd5b600091505b838210156200039f578582018301518183018401529082019062000380565b600093810190920192909252949350505050565b60008060008060008060c08789031215620003cd57600080fd5b620003d887620002d1565b9550620003e860208801620002d1565b60408801519095506001600160401b03808211156200040657600080fd5b620004148a838b0162000304565b955060608901519150808211156200042b57600080fd5b620004398a838b0162000304565b945060808901519150808211156200045057600080fd5b506200045f89828a0162000304565b92505060a087015190509295509295509295565b600181811c908216806200048857607f821691505b602082108103620004a957634e487b7160e01b600052602260045260246000fd5b50919050565b601f821115620002cc57600081815260208120601f850160051c81016020861015620004d85750805b601f850160051c820191505b81811015620004f957828155600101620004e4565b505050505050565b81516001600160401b038111156200051d576200051d620002ee565b62000535816200052e845462000473565b84620004af565b602080601f8311600181146200056d5760008415620005545750858301515b600019600386901b1c1916600185901b178555620004f9565b600085815260208120601f198616915b828110156200059e578886015182559484019460019091019084016200057d565b5085821015620005bd5787850151600019600388901b60f8161c191681555b5050505050600190811b01905550565b634e487b7160e01b600052601160045260246000fd5b600181815b8085111562000624578160001904821115620006085762000608620005cd565b808516156200061657918102915b93841c9390800290620005e8565b509250929050565b6000826200063d57506001620006dc565b816200064c57506000620006dc565b8160018114620006655760028114620006705762000690565b6001915050620006dc565b60ff841115620006845762000684620005cd565b50506001821b620006dc565b5060208310610133831016604e8410600b8410161715620006b5575081810a620006dc565b620006c18383620005e3565b8060001904821115620006d857620006d8620005cd565b0290505b92915050565b6000620006f083836200062c565b9392505050565b6000826200071557634e487b7160e01b600052601260045260246000fd5b500490565b8082028115828204841417620006dc57620006dc620005cd565b80820180821115620006dc57620006dc620005cd565b6117fd806200075a6000396000f3fe608060405234801561001057600080fd5b506004361061014d5760003560e01c806395d89b41116100c3578063c040e6b81161007c578063c040e6b8146102c4578063cda4beef146102de578063d63dc661146102f1578063d7c06919146102f9578063db90cb2d1461030e578063dd62ed3e1461031657600080fd5b806395d89b411461026d578063a457c2d714610275578063a9059cbb14610288578063b4e830f11461029b578063bf2a0a5e146102af578063bfe4e27d146102bc57600080fd5b80632accd144116101155780632accd144146101e3578063313ce567146101fc578063395093511461020b578063571a26a01461021e57806370a08231146102315780637427a40c1461025a57600080fd5b806306fdde0314610152578063095ea7b31461017057806318160ddd1461019357806322c5dec7146101a557806323b872dd146101d0575b600080fd5b61015a610329565b6040516101679190610d9f565b60405180910390f35b61018361017e366004610dd5565b6103bb565b6040519015158152602001610167565b6002545b604051908152602001610167565b600d546101b8906001600160a01b031681565b6040516001600160a01b039091168152602001610167565b6101836101de366004610dff565b6103d5565b6101eb6103f9565b604051610167959493929190610e3b565b60405160128152602001610167565b610183610219366004610dd5565b6105bc565b6101b861022c366004610e98565b6105de565b61019761023f366004610eb1565b6001600160a01b031660009081526020819052604090205490565b6101b8610268366004610e98565b610608565b61015a610618565b610183610283366004610dd5565b610627565b610183610296366004610dd5565b6106a7565b6102ad600b805460ff19166001179055565b005b600b546101839060ff1681565b6102ad6106b5565b6005546102d19060ff1681565b6040516101679190610ee2565b6101836102ec366004610f0a565b6106f6565b6102ad6108d8565b610301610915565b6040516101679190610f36565b6102ad610976565b610197610324366004610f83565b6109b4565b60606003805461033890610fb6565b80601f016020809104026020016040519081016040528092919081815260200182805461036490610fb6565b80156103b15780601f10610386576101008083540402835291602001916103b1565b820191906000526020600020905b81548152906001019060200180831161039457829003601f168201915b5050505050905090565b6000336103c98185856109df565b60019150505b92915050565b6000336103e3858285610b03565b6103ee858585610b7d565b506001949350505050565b60068054600780546001600160a01b03909216929161041790610fb6565b80601f016020809104026020016040519081016040528092919081815260200182805461044390610fb6565b80156104905780601f1061046557610100808354040283529160200191610490565b820191906000526020600020905b81548152906001019060200180831161047357829003601f168201915b5050505050908060020180546104a590610fb6565b80601f01602080910402602001604051908101604052809291908181526020018280546104d190610fb6565b801561051e5780601f106104f35761010080835404028352916020019161051e565b820191906000526020600020905b81548152906001019060200180831161050157829003601f168201915b50505050509080600301805461053390610fb6565b80601f016020809104026020016040519081016040528092919081815260200182805461055f90610fb6565b80156105ac5780601f10610581576101008083540402835291602001916105ac565b820191906000526020600020905b81548152906001019060200180831161058f57829003601f168201915b5050505050908060040154905085565b6000336103c98185856105cf83836109b4565b6105d99190610ff0565b6109df565b600e81815481106105ee57600080fd5b6000918252602090912001546001600160a01b0316905081565b600c81815481106105ee57600080fd5b60606004805461033890610fb6565b6000338161063582866109b4565b90508381101561069a5760405162461bcd60e51b815260206004820152602560248201527f45524332303a2064656372656173656420616c6c6f77616e63652062656c6f77604482015264207a65726f60d81b60648201526084015b60405180910390fd5b6103ee82868684036109df565b6000336103c9818585610b7d565b6006546001600160a01b031633146106df5760405162461bcd60e51b815260040161069190611011565b600580546002919060ff19166001835b0217905550565b60008060055460ff16600381111561071057610710610ecc565b036107495760405162461bcd60e51b815260206004820152600960248201526829aa20a3a2afa2a92960b91b6044820152606401610691565b600160055460ff16600381111561076257610762610ecc565b036107d257600b5460ff166107a85760405162461bcd60e51b815260206004820152600c60248201526b1393d517d054141493d5915160a21b6044820152606401610691565b6006546001600160a01b031633146107d25760405162461bcd60e51b815260040161069190611011565b3360009081526020819052604090205483106108245760405162461bcd60e51b8152602060048201526011602482015270125394d551919250d251539517d1955391607a1b6044820152606401610691565b60003384848760405161083690610d4b565b6001600160a01b039094168452602084019290925260408301526060820152608001604051809103906000f080158015610874573d6000803e3d6000fd5b50600e80546001810182556000919091527fbb7b4a454dc3493923482f07822329ed19e8244eff582cc204f8554c3620c3fd0180546001600160a01b0319166001600160a01b0383811691909117909155600d549192506103ee9133911686610b7d565b6006546001600160a01b031633146109025760405162461bcd60e51b815260040161069190611011565b600580546001919060ff191682806106ef565b6060600e8054806020026020016040519081016040528092919081815260200182805480156103b157602002820191906000526020600020905b81546001600160a01b0316815260019091019060200180831161094f575050505050905090565b6006546001600160a01b031633146109a05760405162461bcd60e51b815260040161069190611011565b600580546003919060ff19166001836106ef565b6001600160a01b03918216600090815260016020908152604080832093909416825291909152205490565b6001600160a01b038316610a415760405162461bcd60e51b8152602060048201526024808201527f45524332303a20617070726f76652066726f6d20746865207a65726f206164646044820152637265737360e01b6064820152608401610691565b6001600160a01b038216610aa25760405162461bcd60e51b815260206004820152602260248201527f45524332303a20617070726f766520746f20746865207a65726f206164647265604482015261737360f01b6064820152608401610691565b6001600160a01b0383811660008181526001602090815260408083209487168084529482529182902085905590518481527f8c5be1e5ebec7d5bd14f71427d1e84f3dd0314c0f7b2291e5b200ac8c7c3b925910160405180910390a3505050565b6000610b0f84846109b4565b90506000198114610b775781811015610b6a5760405162461bcd60e51b815260206004820152601d60248201527f45524332303a20696e73756666696369656e7420616c6c6f77616e63650000006044820152606401610691565b610b7784848484036109df565b50505050565b6001600160a01b038316610be15760405162461bcd60e51b815260206004820152602560248201527f45524332303a207472616e736665722066726f6d20746865207a65726f206164604482015264647265737360d81b6064820152608401610691565b6001600160a01b038216610c435760405162461bcd60e51b815260206004820152602360248201527f45524332303a207472616e7366657220746f20746865207a65726f206164647260448201526265737360e81b6064820152608401610691565b6001600160a01b03831660009081526020819052604090205481811015610cbb5760405162461bcd60e51b815260206004820152602660248201527f45524332303a207472616e7366657220616d6f756e7420657863656564732062604482015265616c616e636560d01b6064820152608401610691565b6001600160a01b03808516600090815260208190526040808220858503905591851681529081208054849290610cf2908490610ff0565b92505081905550826001600160a01b0316846001600160a01b03167fddf252ad1be2c89b69c2b068fc378daa952ba7f163c4a11628f55a4df523b3ef84604051610d3e91815260200190565b60405180910390a3610b77565b610793806200103583390190565b6000815180845260005b81811015610d7f57602081850181015186830182015201610d63565b506000602082860101526020601f19601f83011685010191505092915050565b602081526000610db26020830184610d59565b9392505050565b80356001600160a01b0381168114610dd057600080fd5b919050565b60008060408385031215610de857600080fd5b610df183610db9565b946020939093013593505050565b600080600060608486031215610e1457600080fd5b610e1d84610db9565b9250610e2b60208501610db9565b9150604084013590509250925092565b6001600160a01b038616815260a060208201819052600090610e5f90830187610d59565b8281036040840152610e718187610d59565b90508281036060840152610e858186610d59565b9150508260808301529695505050505050565b600060208284031215610eaa57600080fd5b5035919050565b600060208284031215610ec357600080fd5b610db282610db9565b634e487b7160e01b600052602160045260246000fd5b6020810160048310610f0457634e487b7160e01b600052602160045260246000fd5b91905290565b600080600060608486031215610f1f57600080fd5b505081359360208301359350604090920135919050565b6020808252825182820181905260009190848201906040850190845b81811015610f775783516001600160a01b031683529284019291840191600101610f52565b50909695505050505050565b60008060408385031215610f9657600080fd5b610f9f83610db9565b9150610fad60208401610db9565b90509250929050565b600181811c90821680610fca57607f821691505b602082108103610fea57634e487b7160e01b600052602260045260246000fd5b50919050565b808201808211156103cf57634e487b7160e01b600052601160045260246000fd5b60208082526009908201526827afa327aaa72222a960b91b60408201526060019056fe608060405234801561001057600080fd5b5060405161079338038061079383398101604081905261002f91610089565b600080546001600160a01b0319166001600160a01b03861617905561005742620151806100d4565b60028190556100679082906100d4565b600155506000600755600391909155600455506006805460ff191690556100fb565b6000806000806080858703121561009f57600080fd5b84516001600160a01b03811681146100b657600080fd5b60208601516040870151606090970151919890975090945092505050565b808201808211156100f557634e487b7160e01b600052601160045260246000fd5b92915050565b6106898061010a6000396000f3fe60806040526004361061009c5760003560e01c8063be9a655511610064578063be9a655514610140578063c19d93fb14610155578063ce845d1d1461017c578063d3a8638614610192578063ea8a1af0146101a8578063eb54f9ec146101bd57600080fd5b806338af3eed146100a15780633ccfd60b146100de578063454a2ab3146100f15780634b449cba14610106578063aa8c217c1461012a575b600080fd5b3480156100ad57600080fd5b506000546100c1906001600160a01b031681565b6040516001600160a01b0390911681526020015b60405180910390f35b60015b60405190151581526020016100d5565b6101046100ff36600461057c565b6101d3565b005b34801561011257600080fd5b5061011c60015481565b6040519081526020016100d5565b34801561013657600080fd5b5061011c60035481565b34801561014c57600080fd5b506100e1610417565b34801561016157600080fd5b5060065461016f9060ff1681565b6040516100d591906105ab565b34801561018857600080fd5b5061011c60075481565b34801561019e57600080fd5b5061011c60045481565b3480156101b457600080fd5b506100e16104f8565b3480156101c957600080fd5b5061011c60025481565b60018060065460ff1660048111156101ed576101ed610595565b146102135760405162461bcd60e51b815260040161020a906105d3565b60405180910390fd5b6001544211156102555760405162461bcd60e51b815260206004820152600d60248201526c22a72222a22fa0aaa1aa24a7a760991b604482015260640161020a565b60025442101561029d5760405162461bcd60e51b81526020600482015260136024820152722727aa2fa9aa20a92a22a22fa0aaa1aa24a7a760691b604482015260640161020a565b6004546102aa833461060a565b10156102e25760405162461bcd60e51b81526020600482015260076024820152661313d5d7d0925160ca1b604482015260640161020a565b34600760008282546102f4919061062c565b90915550506040805160608101825233815234602082019081529181018481526005805460018082018355600092835293517f036b6384b5eca791c62761152d0c79bb0604c104a5fb6f4eb0703f3154bb3db0600390920291820180546001600160a01b0319166001600160a01b0390921691909117905593517f036b6384b5eca791c62761152d0c79bb0604c104a5fb6f4eb0703f3154bb3db185015590517f036b6384b5eca791c62761152d0c79bb0604c104a5fb6f4eb0703f3154bb3db290930192909255805461038492906103ce90849061062c565b9091555050604080513381523460208201529081018390527f28dc9f4ca742fb1574a6514ee7d82c0858b4afb625026365ac3d8cfceb14f7889060600160405180910390a15050565b600080600254421115610432576006805460ff191660011790555b600181600481111561044657610446610595565b148015610454575060015442115b5080600481111561046757610467610595565b60065460ff16600481111561047e5761047e610595565b1461049b5760405162461bcd60e51b815260040161020a906105d3565b6002544210156104e35760405162461bcd60e51b81526020600482015260136024820152722727aa2fa9aa20a92a22a22fa0aaa1aa24a7a760691b604482015260640161020a565b50506006805460ff1916600190811790915590565b600080600254421115610513576006805460ff191660011790555b600181600481111561052757610527610595565b148015610535575060015442115b5080600481111561054857610548610595565b60065460ff16600481111561055f5761055f610595565b146104e35760405162461bcd60e51b815260040161020a906105d3565b60006020828403121561058e57600080fd5b5035919050565b634e487b7160e01b600052602160045260246000fd5b60208101600583106105cd57634e487b7160e01b600052602160045260246000fd5b91905290565b6020808252601f908201527f41756374696f6e206973206e6f7420696e20636f727265637420737461746500604082015260600190565b60008261062757634e487b7160e01b600052601260045260246000fd5b500490565b8082018082111561064d57634e487b7160e01b600052601160045260246000fd5b9291505056fea26469706673582212205866ec274ded240b0f441c37a68075fc47d8ba3e15c0536c34227710d201293664736f6c63430008110033a26469706673582212202b59f13b82b52ebac808f71deaed244580a53390b163d2e1c28089f6bd67056464736f6c63430008110033a2646970667358221220d955ad68ebab90cc54b8f976d7576dc3b767c27a7b85981babdfc73490152aff64736f6c63430008110033",
    "sourcePath": "/home/erfanfi79/Projects/smart-contract/src/contracts/SharifStarter.sol",
    "compiler": {
        "name": "solc",
        "version": "0.8.17+commit.8df45f5f"
    },
    "functionHashes": {
        "allowance(address,address)": "dd62ed3e",
        "approve(address,uint256)": "095ea7b3",
        "approveProject(address)": "be261752",
        "balanceOf(address)": "70a08231",
        "createProject(address,string,string,string,uint256)": "10e30f21",
        "decimals()": "313ce567",
        "decreaseAllowance(address,uint256)": "a457c2d7",
        "getProjectBySymbol(string)": "4d7eb2f3",
        "getProjects()": "dcc60128",
        "increaseAllowance(address,uint256)": "39509351",
        "name()": "06fdde03",
        "symbol()": "95d89b41",
        "totalSupply()": "18160ddd",
        "transfer(address,uint256)": "a9059cbb",
        "transferFrom(address,address,uint256)": "23b872dd"
    },
    "gasEstimates": {
        "creation": {
            "codeDepositCost": "2448600",
            "executionCost": "infinite",
            "totalCost": "infinite"
        },
        "external": {
            "allowance(address,address)": "infinite",
            "approve(address,uint256)": "24645",
            "approveProject(address)": "infinite",
            "balanceOf(address)": "2579",
            "createProject(address,string,string,string,uint256)": "infinite",
            "decimals()": "244",
            "decreaseAllowance(address,uint256)": "27033",
            "getProjectBySymbol(string)": "infinite",
            "getProjects()": "infinite",
            "increaseAllowance(address,uint256)": "infinite",
            "name()": "infinite",
            "symbol()": "infinite",
            "totalSupply()": "2304",
            "transfer(address,uint256)": "infinite",
            "transferFrom(address,address,uint256)": "infinite"
        },
        "internal": {
            "checkValidInput(address,string memory,string memory,uint256)": "infinite"
        }
    }
}